{
  "contractName": "Candidate_data",
  "abi": [
    {
      "constant": true,
      "inputs": [
        {
          "name": "",
          "type": "uint256"
        }
      ],
      "name": "Candidates",
      "outputs": [
        {
          "name": "Id",
          "type": "uint256"
        },
        {
          "name": "candidatename",
          "type": "string"
        },
        {
          "name": "branch",
          "type": "string"
        },
        {
          "name": "gender",
          "type": "string"
        },
        {
          "name": "year",
          "type": "string"
        },
        {
          "name": "email_id",
          "type": "string"
        },
        {
          "name": "reg_id",
          "type": "string"
        },
        {
          "name": "vote_count",
          "type": "uint256"
        }
      ],
      "payable": false,
      "stateMutability": "view",
      "type": "function"
    },
    {
      "constant": true,
      "inputs": [],
      "name": "Candidate_count",
      "outputs": [
        {
          "name": "",
          "type": "uint256"
        }
      ],
      "payable": false,
      "stateMutability": "view",
      "type": "function"
    },
    {
      "constant": true,
      "inputs": [
        {
          "name": "",
          "type": "address"
        }
      ],
      "name": "voters",
      "outputs": [
        {
          "name": "",
          "type": "bool"
        }
      ],
      "payable": false,
      "stateMutability": "view",
      "type": "function"
    },
    {
      "anonymous": false,
      "inputs": [
        {
          "indexed": true,
          "name": "_candidateId",
          "type": "uint256"
        }
      ],
      "name": "votedEvent",
      "type": "event"
    },
    {
      "constant": false,
      "inputs": [
        {
          "name": "_cand",
          "type": "string"
        },
        {
          "name": "_branch",
          "type": "string"
        },
        {
          "name": "_gender",
          "type": "string"
        },
        {
          "name": "_email",
          "type": "string"
        },
        {
          "name": "_year",
          "type": "string"
        },
        {
          "name": "_reg_id",
          "type": "string"
        }
      ],
      "name": "addCandidate",
      "outputs": [],
      "payable": true,
      "stateMutability": "payable",
      "type": "function"
    },
    {
      "constant": false,
      "inputs": [
        {
          "name": "_candidateId",
          "type": "uint256"
        }
      ],
      "name": "vote",
      "outputs": [],
      "payable": false,
      "stateMutability": "nonpayable",
      "type": "function"
    }
  ],
  "bytecode": "0x608060405234801561001057600080fd5b50610fc2806100206000396000f3fe60806040526004361061006d576000357c0100000000000000000000000000000000000000000000000000000000900463ffffffff1680630121b93f14610072578063290e9212146100ad5780634c7265541461038b578063a3ec138d146103b6578063bbdac3231461041f575b600080fd5b34801561007e57600080fd5b506100ab6004803603602081101561009557600080fd5b81019080803590602001909291905050506107cd565b005b3480156100b957600080fd5b506100e6600480360360208110156100d057600080fd5b81019080803590602001909291905050506109c1565b6040518089815260200180602001806020018060200180602001806020018060200188815260200187810387528e818151815260200191508051906020019080838360005b8381101561014657808201518184015260208101905061012b565b50505050905090810190601f1680156101735780820380516001836020036101000a031916815260200191505b5087810386528d818151815260200191508051906020019080838360005b838110156101ac578082015181840152602081019050610191565b50505050905090810190601f1680156101d95780820380516001836020036101000a031916815260200191505b5087810385528c818151815260200191508051906020019080838360005b838110156102125780820151818401526020810190506101f7565b50505050905090810190601f16801561023f5780820380516001836020036101000a031916815260200191505b5087810384528b818151815260200191508051906020019080838360005b8381101561027857808201518184015260208101905061025d565b50505050905090810190601f1680156102a55780820380516001836020036101000a031916815260200191505b5087810383528a818151815260200191508051906020019080838360005b838110156102de5780820151818401526020810190506102c3565b50505050905090810190601f16801561030b5780820380516001836020036101000a031916815260200191505b50878103825289818151815260200191508051906020019080838360005b83811015610344578082015181840152602081019050610329565b50505050905090810190601f1680156103715780820380516001836020036101000a031916815260200191505b509e50505050505050505050505050505060405180910390f35b34801561039757600080fd5b506103a0610d99565b6040518082815260200191505060405180910390f35b3480156103c257600080fd5b50610405600480360360208110156103d957600080fd5b81019080803573ffffffffffffffffffffffffffffffffffffffff169060200190929190505050610d9f565b604051808215151515815260200191505060405180910390f35b6107cb600480360360c081101561043557600080fd5b810190808035906020019064010000000081111561045257600080fd5b82018360208201111561046457600080fd5b8035906020019184600183028401116401000000008311171561048657600080fd5b91908080601f016020809104026020016040519081016040528093929190818152602001838380828437600081840152601f19601f820116905080830192505050505050509192919290803590602001906401000000008111156104e957600080fd5b8201836020820111156104fb57600080fd5b8035906020019184600183028401116401000000008311171561051d57600080fd5b91908080601f016020809104026020016040519081016040528093929190818152602001838380828437600081840152601f19601f8201169050808301925050505050505091929192908035906020019064010000000081111561058057600080fd5b82018360208201111561059257600080fd5b803590602001918460018302840111640100000000831117156105b457600080fd5b91908080601f016020809104026020016040519081016040528093929190818152602001838380828437600081840152601f19601f8201169050808301925050505050505091929192908035906020019064010000000081111561061757600080fd5b82018360208201111561062957600080fd5b8035906020019184600183028401116401000000008311171561064b57600080fd5b91908080601f016020809104026020016040519081016040528093929190818152602001838380828437600081840152601f19601f820116905080830192505050505050509192919290803590602001906401000000008111156106ae57600080fd5b8201836020820111156106c057600080fd5b803590602001918460018302840111640100000000831117156106e257600080fd5b91908080601f016020809104026020016040519081016040528093929190818152602001838380828437600081840152601f19601f8201169050808301925050505050505091929192908035906020019064010000000081111561074557600080fd5b82018360208201111561075757600080fd5b8035906020019184600183028401116401000000008311171561077957600080fd5b91908080601f016020809104026020016040519081016040528093929190818152602001838380828437600081840152601f19601f820116905080830192505050505050509192919290505050610dbf565b005b6000803373ffffffffffffffffffffffffffffffffffffffff1673ffffffffffffffffffffffffffffffffffffffff16815260200190815260200160002060009054906101000a900460ff1615151561088e576040517f08c379a00000000000000000000000000000000000000000000000000000000081526004018080602001828103825260128152602001807f636865636b20766f74696e6720646f6e653f000000000000000000000000000081525060200191505060405180910390fd5b6000811180156108a057506002548111155b1515610914576040517f08c379a00000000000000000000000000000000000000000000000000000000081526004018080602001828103825260158152602001807f76616c69646174652063616e6469646174655f6964000000000000000000000081525060200191505060405180910390fd5b60016000803373ffffffffffffffffffffffffffffffffffffffff1673ffffffffffffffffffffffffffffffffffffffff16815260200190815260200160002060006101000a81548160ff0219169083151502179055506001600082815260200190815260200160002060070160008154809291906001019190505550807ffff3c900d938d21d0990d786e819f29b8d05c1ef587b462b939609625b684b1660405160405180910390a250565b6001602052806000526040600020600091509050806000015490806001018054600181600116156101000203166002900480601f016020809104026020016040519081016040528092919081815260200182805460018160011615610100020316600290048015610a735780601f10610a4857610100808354040283529160200191610a73565b820191906000526020600020905b815481529060010190602001808311610a5657829003601f168201915b505050505090806002018054600181600116156101000203166002900480601f016020809104026020016040519081016040528092919081815260200182805460018160011615610100020316600290048015610b115780601f10610ae657610100808354040283529160200191610b11565b820191906000526020600020905b815481529060010190602001808311610af457829003601f168201915b505050505090806003018054600181600116156101000203166002900480601f016020809104026020016040519081016040528092919081815260200182805460018160011615610100020316600290048015610baf5780601f10610b8457610100808354040283529160200191610baf565b820191906000526020600020905b815481529060010190602001808311610b9257829003601f168201915b505050505090806004018054600181600116156101000203166002900480601f016020809104026020016040519081016040528092919081815260200182805460018160011615610100020316600290048015610c4d5780601f10610c2257610100808354040283529160200191610c4d565b820191906000526020600020905b815481529060010190602001808311610c3057829003601f168201915b505050505090806005018054600181600116156101000203166002900480601f016020809104026020016040519081016040528092919081815260200182805460018160011615610100020316600290048015610ceb5780601f10610cc057610100808354040283529160200191610ceb565b820191906000526020600020905b815481529060010190602001808311610cce57829003601f168201915b505050505090806006018054600181600116156101000203166002900480601f016020809104026020016040519081016040528092919081815260200182805460018160011615610100020316600290048015610d895780601f10610d5e57610100808354040283529160200191610d89565b820191906000526020600020905b815481529060010190602001808311610d6c57829003601f168201915b5050505050908060070154905088565b60025481565b60006020528060005260406000206000915054906101000a900460ff1681565b6101006040519081016040528060025481526020018781526020018681526020018581526020018481526020018381526020018281526020016000815250600160006002548152602001908152602001600020600082015181600001556020820151816001019080519060200190610e38929190610ef1565b506040820151816002019080519060200190610e55929190610ef1565b506060820151816003019080519060200190610e72929190610ef1565b506080820151816004019080519060200190610e8f929190610ef1565b5060a0820151816005019080519060200190610eac929190610ef1565b5060c0820151816006019080519060200190610ec9929190610ef1565b5060e08201518160070155905050600260008154809291906001019190505550505050505050565b828054600181600116156101000203166002900490600052602060002090601f016020900481019282601f10610f3257805160ff1916838001178555610f60565b82800160010185558215610f60579182015b82811115610f5f578251825591602001919060010190610f44565b5b509050610f6d9190610f71565b5090565b610f9391905b80821115610f8f576000816000905550600101610f77565b5090565b9056fea165627a7a7230582082bfda8b007598a526d888cf5f3c372c6f3fe1dc8782f13e7141ebacb063ad9d0029",
  "source": "pragma solidity >=0.4.9 <0.6.0;\ncontract Candidate_data{\n\n    struct Candidate {\n        uint Id;\n        string candidatename;\n        string branch;\n        string gender;\n        string year;\n        string email_id;\n        string reg_id;\n        uint vote_count;\n    }\n\n    mapping(address => bool) public voters;\n\n    mapping (uint =>Candidate) public Candidates;\n\n    uint public Candidate_count;\n    event votedEvent (\n        uint indexed _candidateId\n    );\n\n    function addCandidate(string memory _cand, string memory _branch, string memory _gender,\n     string memory _email, string memory _year, string memory _reg_id) payable public{\n        // var _cand = candidate[0];\n        // var _branch = candidate[1];\n        // var _gender = candidate[2];\n        // var _email = candidate[3];\n        // var _year = candidate[4];\n        // var _reg_id = candidate[5];\n        Candidates[Candidate_count] = Candidate(Candidate_count,_cand, _branch, _gender, _email, _year, _reg_id,0);\n        Candidate_count ++;\n    }\n\n    function vote (uint _candidateId) public {\n        // require that they haven't voted before\n        require(!voters[msg.sender],\"check voting done?\");\n\n        // require a valid candidate\n        require(_candidateId > 0 && _candidateId <= Candidate_count, \"validate candidate_id\");\n\n        // record that voter has voted\n        voters[msg.sender] = true;\n\n        // update candidate vote Count\n        Candidates[_candidateId].vote_count++;\n\n        // trigger voted event\n        emit votedEvent(_candidateId);\n    }\n\n    // constructor () public{\n    //addCandidate(\"Aman\");\n    //addCandidate(\"Vishal\");\n    // addCandidate(\"demo\", 20, \"M\", \"address\", \"email\", 10,\"sangola\", \"maha\", \"bjp\");\n    // addCandidate(\"Vishwa\", 20, \"M\", \"address\", \"email\", 10,\"sangola\", \"maha\", \"bjp\");\n    // }\n    // function addVote(uint _id) public{\n    //     Candidate memory c =Candidates[_id];\n    //     count_of_vote=c.vote_count;\n    //     count_of_vote =count_of_vote+1;\n    //     c.vote_count=count_of_vote;\n    // }\n}",
  "sourcePath": "/home/nolayercode/Documents/BlockChain/contracts/Candidate_data.sol",
  "compiler": {
    "name": "solc",
    "version": "0.5.0+commit.1d4f565a.Emscripten.clang"
  },
  "schemaVersion": "3.0.9",
  "updatedAt": "2019-05-18T09:10:24.856Z",
  "devdoc": {
    "methods": {}
  },
  "userdoc": {
    "methods": {}
  }
}