{
  "contractName": "Candidate_data",
  "abi": [
    {
      "constant": true,
      "inputs": [
        {
          "name": "",
          "type": "uint256"
        }
      ],
      "name": "Candidates",
      "outputs": [
        {
          "name": "Id",
          "type": "uint256"
        },
        {
          "name": "candidatename",
          "type": "string"
        },
        {
          "name": "age",
          "type": "uint256"
        },
        {
          "name": "gender",
          "type": "string"
        },
        {
          "name": "Address",
          "type": "string"
        },
        {
          "name": "email_id",
          "type": "string"
        },
        {
          "name": "govt_proof_id",
          "type": "uint256"
        },
        {
          "name": "vote_count",
          "type": "uint256"
        }
      ],
      "payable": false,
      "stateMutability": "view",
      "type": "function"
    },
    {
      "constant": true,
      "inputs": [],
      "name": "Candidate_count",
      "outputs": [
        {
          "name": "",
          "type": "uint256"
        }
      ],
      "payable": false,
      "stateMutability": "view",
      "type": "function"
    },
    {
      "constant": true,
      "inputs": [
        {
          "name": "",
          "type": "uint256"
        }
      ],
      "name": "Election_candidates",
      "outputs": [
        {
          "name": "election_city",
          "type": "string"
        },
        {
          "name": "election_state",
          "type": "string"
        },
        {
          "name": "election_party",
          "type": "string"
        }
      ],
      "payable": false,
      "stateMutability": "view",
      "type": "function"
    },
    {
      "inputs": [],
      "payable": false,
      "stateMutability": "nonpayable",
      "type": "constructor"
    },
    {
      "constant": false,
      "inputs": [
        {
          "name": "_cand",
          "type": "string"
        },
        {
          "name": "_age",
          "type": "uint256"
        },
        {
          "name": "_gender",
          "type": "string"
        },
        {
          "name": "_address",
          "type": "string"
        },
        {
          "name": "_email",
          "type": "string"
        },
        {
          "name": "_proofid",
          "type": "uint256"
        },
        {
          "name": "_elect_city",
          "type": "string"
        },
        {
          "name": "_elect_state",
          "type": "string"
        },
        {
          "name": "_elect_party",
          "type": "string"
        }
      ],
      "name": "addCandidate",
      "outputs": [],
      "payable": false,
      "stateMutability": "nonpayable",
      "type": "function"
    },
    {
      "constant": false,
      "inputs": [
        {
          "name": "fetch_id",
          "type": "uint256"
        }
      ],
      "name": "addVote",
      "outputs": [],
      "payable": false,
      "stateMutability": "nonpayable",
      "type": "function"
    }
  ],
  "bytecode": "0x60806040523480156200001157600080fd5b50620001a96040805190810160405280600481526020017f64656d6f0000000000000000000000000000000000000000000000000000000081525060146040805190810160405280600181526020017f4d000000000000000000000000000000000000000000000000000000000000008152506040805190810160405280600781526020017f61646472657373000000000000000000000000000000000000000000000000008152506040805190810160405280600581526020017f656d61696c000000000000000000000000000000000000000000000000000000815250600a6040805190810160405280600781526020017f73616e676f6c61000000000000000000000000000000000000000000000000008152506040805190810160405280600481526020017f6d616861000000000000000000000000000000000000000000000000000000008152506040805190810160405280600381526020017f626a70000000000000000000000000000000000000000000000000000000000081525062000346640100000000026401000000009004565b620003406040805190810160405280600681526020017f566973687761000000000000000000000000000000000000000000000000000081525060146040805190810160405280600181526020017f4d000000000000000000000000000000000000000000000000000000000000008152506040805190810160405280600781526020017f61646472657373000000000000000000000000000000000000000000000000008152506040805190810160405280600581526020017f656d61696c000000000000000000000000000000000000000000000000000000815250600a6040805190810160405280600781526020017f73616e676f6c61000000000000000000000000000000000000000000000000008152506040805190810160405280600481526020017f6d616861000000000000000000000000000000000000000000000000000000008152506040805190810160405280600381526020017f626a70000000000000000000000000000000000000000000000000000000000081525062000346640100000000026401000000009004565b6200059c565b6101006040519081016040528060025481526020018a815260200189815260200188815260200187815260200186815260200185815260200160008152506000806002548152602001908152602001600020600082015181600001556020820151816001019080519060200190620003c0929190620004ed565b50604082015181600201556060820151816003019080519060200190620003e9929190620004ed565b50608082015181600401908051906020019062000408929190620004ed565b5060a082015181600501908051906020019062000427929190620004ed565b5060c0820151816006015560e082015181600701559050506060604051908101604052808481526020018381526020018281525060016000600254815260200190815260200160002060008201518160000190805190602001906200048e929190620004ed565b506020820151816001019080519060200190620004ad929190620004ed565b506040820151816002019080519060200190620004cc929190620004ed565b50905050600260008154809291906001019190505550505050505050505050565b828054600181600116156101000203166002900490600052602060002090601f016020900481019282601f106200053057805160ff191683800117855562000561565b8280016001018555821562000561579182015b828111156200056057825182559160200191906001019062000543565b5b50905062000570919062000574565b5090565b6200059991905b80821115620005955760008160009055506001016200057b565b5090565b90565b61101180620005ac6000396000f3fe60806040526004361061006d576000357c0100000000000000000000000000000000000000000000000000000000900463ffffffff1680630383badc14610072578063290e9212146100ad5780634c726554146102c1578063970355bc146102ec57806399c3bb2214610753575b600080fd5b34801561007e57600080fd5b506100ab6004803603602081101561009557600080fd5b81019080803590602001909291905050506108df565b005b3480156100b957600080fd5b506100e6600480360360208110156100d057600080fd5b8101908080359060200190929190505050610907565b604051808981526020018060200188815260200180602001806020018060200187815260200186815260200185810385528c818151815260200191508051906020019080838360005b8381101561014a57808201518184015260208101905061012f565b50505050905090810190601f1680156101775780820380516001836020036101000a031916815260200191505b5085810384528a818151815260200191508051906020019080838360005b838110156101b0578082015181840152602081019050610195565b50505050905090810190601f1680156101dd5780820380516001836020036101000a031916815260200191505b50858103835289818151815260200191508051906020019080838360005b838110156102165780820151818401526020810190506101fb565b50505050905090810190601f1680156102435780820380516001836020036101000a031916815260200191505b50858103825288818151815260200191508051906020019080838360005b8381101561027c578082015181840152602081019050610261565b50505050905090810190601f1680156102a95780820380516001836020036101000a031916815260200191505b509c5050505050505050505050505060405180910390f35b3480156102cd57600080fd5b506102d6610baf565b6040518082815260200191505060405180910390f35b3480156102f857600080fd5b50610751600480360361012081101561031057600080fd5b810190808035906020019064010000000081111561032d57600080fd5b82018360208201111561033f57600080fd5b8035906020019184600183028401116401000000008311171561036157600080fd5b91908080601f016020809104026020016040519081016040528093929190818152602001838380828437600081840152601f19601f82011690508083019250505050505050919291929080359060200190929190803590602001906401000000008111156103ce57600080fd5b8201836020820111156103e057600080fd5b8035906020019184600183028401116401000000008311171561040257600080fd5b91908080601f016020809104026020016040519081016040528093929190818152602001838380828437600081840152601f19601f8201169050808301925050505050505091929192908035906020019064010000000081111561046557600080fd5b82018360208201111561047757600080fd5b8035906020019184600183028401116401000000008311171561049957600080fd5b91908080601f016020809104026020016040519081016040528093929190818152602001838380828437600081840152601f19601f820116905080830192505050505050509192919290803590602001906401000000008111156104fc57600080fd5b82018360208201111561050e57600080fd5b8035906020019184600183028401116401000000008311171561053057600080fd5b91908080601f016020809104026020016040519081016040528093929190818152602001838380828437600081840152601f19601f820116905080830192505050505050509192919290803590602001909291908035906020019064010000000081111561059d57600080fd5b8201836020820111156105af57600080fd5b803590602001918460018302840111640100000000831117156105d157600080fd5b91908080601f016020809104026020016040519081016040528093929190818152602001838380828437600081840152601f19601f8201169050808301925050505050505091929192908035906020019064010000000081111561063457600080fd5b82018360208201111561064657600080fd5b8035906020019184600183028401116401000000008311171561066857600080fd5b91908080601f016020809104026020016040519081016040528093929190818152602001838380828437600081840152601f19601f820116905080830192505050505050509192919290803590602001906401000000008111156106cb57600080fd5b8201836020820111156106dd57600080fd5b803590602001918460018302840111640100000000831117156106ff57600080fd5b91908080601f016020809104026020016040519081016040528093929190818152602001838380828437600081840152601f19601f820116905080830192505050505050509192919290505050610bb5565b005b34801561075f57600080fd5b5061078c6004803603602081101561077657600080fd5b8101908080359060200190929190505050610d4e565b60405180806020018060200180602001848103845287818151815260200191508051906020019080838360005b838110156107d45780820151818401526020810190506107b9565b50505050905090810190601f1680156108015780820380516001836020036101000a031916815260200191505b50848103835286818151815260200191508051906020019080838360005b8381101561083a57808201518184015260208101905061081f565b50505050905090810190601f1680156108675780820380516001836020036101000a031916815260200191505b50848103825285818151815260200191508051906020019080838360005b838110156108a0578082015181840152602081019050610885565b50505050905090810190601f1680156108cd5780820380516001836020036101000a031916815260200191505b50965050505050505060405180910390f35b6000808281526020019081526020016000206007016000815480929190600101919050555050565b6000602052806000526040600020600091509050806000015490806001018054600181600116156101000203166002900480601f0160208091040260200160405190810160405280929190818152602001828054600181600116156101000203166002900480156109b95780601f1061098e576101008083540402835291602001916109b9565b820191906000526020600020905b81548152906001019060200180831161099c57829003601f168201915b505050505090806002015490806003018054600181600116156101000203166002900480601f016020809104026020016040519081016040528092919081815260200182805460018160011615610100020316600290048015610a5d5780601f10610a3257610100808354040283529160200191610a5d565b820191906000526020600020905b815481529060010190602001808311610a4057829003601f168201915b505050505090806004018054600181600116156101000203166002900480601f016020809104026020016040519081016040528092919081815260200182805460018160011615610100020316600290048015610afb5780601f10610ad057610100808354040283529160200191610afb565b820191906000526020600020905b815481529060010190602001808311610ade57829003601f168201915b505050505090806005018054600181600116156101000203166002900480601f016020809104026020016040519081016040528092919081815260200182805460018160011615610100020316600290048015610b995780601f10610b6e57610100808354040283529160200191610b99565b820191906000526020600020905b815481529060010190602001808311610b7c57829003601f168201915b5050505050908060060154908060070154905088565b60025481565b6101006040519081016040528060025481526020018a815260200189815260200188815260200187815260200186815260200185815260200160008152506000806002548152602001908152602001600020600082015181600001556020820151816001019080519060200190610c2d929190610f40565b50604082015181600201556060820151816003019080519060200190610c54929190610f40565b506080820151816004019080519060200190610c71929190610f40565b5060a0820151816005019080519060200190610c8e929190610f40565b5060c0820151816006015560e08201518160070155905050606060405190810160405280848152602001838152602001828152506001600060025481526020019081526020016000206000820151816000019080519060200190610cf3929190610f40565b506020820151816001019080519060200190610d10929190610f40565b506040820151816002019080519060200190610d2d929190610f40565b50905050600260008154809291906001019190505550505050505050505050565b6001602052806000526040600020600091509050806000018054600181600116156101000203166002900480601f016020809104026020016040519081016040528092919081815260200182805460018160011615610100020316600290048015610dfa5780601f10610dcf57610100808354040283529160200191610dfa565b820191906000526020600020905b815481529060010190602001808311610ddd57829003601f168201915b505050505090806001018054600181600116156101000203166002900480601f016020809104026020016040519081016040528092919081815260200182805460018160011615610100020316600290048015610e985780601f10610e6d57610100808354040283529160200191610e98565b820191906000526020600020905b815481529060010190602001808311610e7b57829003601f168201915b505050505090806002018054600181600116156101000203166002900480601f016020809104026020016040519081016040528092919081815260200182805460018160011615610100020316600290048015610f365780601f10610f0b57610100808354040283529160200191610f36565b820191906000526020600020905b815481529060010190602001808311610f1957829003601f168201915b5050505050905083565b828054600181600116156101000203166002900490600052602060002090601f016020900481019282601f10610f8157805160ff1916838001178555610faf565b82800160010185558215610faf579182015b82811115610fae578251825591602001919060010190610f93565b5b509050610fbc9190610fc0565b5090565b610fe291905b80821115610fde576000816000905550600101610fc6565b5090565b9056fea165627a7a72305820b12f2b6709cdce461943e365032a360e7c1dc8ca327da64a528e3b080accab8e0029",
  "source": "pragma solidity >=0.4.9 <0.6.0;\ncontract Candidate_data{\n\n    struct Candidate {\n        uint Id;\n        string candidatename;\n        uint age;\n        string gender;\n        string Address;\n        string email_id;\n        uint govt_proof_id;\n        uint vote_count;\n    }\n\n    struct Election_candidate {\n        string election_city;\n        string election_state;\n        string election_party;\n    }\n\n    mapping (uint =>Candidate) public Candidates;\n    mapping (uint =>Election_candidate) public Election_candidates;\n\n    uint public Candidate_count;\n\n    function addCandidate(string memory _cand,uint _age,\n    string memory _gender,string memory _address,string memory _email, uint _proofid,string memory _elect_city,string memory _elect_state,string memory _elect_party) public{\n\n        Candidates[Candidate_count] = Candidate(Candidate_count,_cand,\n        _age,_gender,_address,_email,_proofid,0);\n        Election_candidates[Candidate_count] = Election_candidate(_elect_city,\n        _elect_state,_elect_party);\n        Candidate_count ++;\n\n        // election_objects[Candidate_count] = election_objects(_cand);\n    }\n\n    function addVote(uint fetch_id) public{\n      Candidates[fetch_id].vote_count ++;\n    }\n\n    constructor () public{\n    //addCandidate(\"Aman\");\n    //addCandidate(\"Vishal\");\n    addCandidate(\"demo\", 20, \"M\", \"address\", \"email\", 10,\"sangola\", \"maha\", \"bjp\");\n    addCandidate(\"Vishwa\", 20, \"M\", \"address\", \"email\", 10,\"sangola\", \"maha\", \"bjp\");\n    }\n    /*function addVote(uint _id) public{\n        Candidate memory c =Candidates[_id];\n        count_of_vote=c.vote_count;\n        count_of_vote =count_of_vote+1;\n        c.vote_count=count_of_vote;\n    }*/\n}",
  "sourcePath": "/home/shinigami/Documents/BlockChain/contracts/Candidate_data.sol",
  "compiler": {
    "name": "solc",
    "version": "0.5.0+commit.1d4f565a.Emscripten.clang"
  },
  "schemaVersion": "3.0.9",
  "updatedAt": "2019-05-15T10:22:01.742Z",
  "devdoc": {
    "methods": {}
  },
  "userdoc": {
    "methods": {}
  }
}