{
  "contractName": "Candidate_data",
  "abi": [
    {
      "constant": true,
      "inputs": [
        {
          "name": "",
          "type": "uint256"
        }
      ],
      "name": "Users",
      "outputs": [
        {
          "name": "voters_ID",
          "type": "uint256"
        },
        {
          "name": "votername",
          "type": "string"
        },
        {
          "name": "Regno",
          "type": "string"
        },
        {
          "name": "Branch",
          "type": "string"
        },
        {
          "name": "Year",
          "type": "string"
        },
        {
          "name": "Emailid",
          "type": "string"
        }
      ],
      "payable": false,
      "stateMutability": "view",
      "type": "function"
    },
    {
      "constant": true,
      "inputs": [
        {
          "name": "",
          "type": "uint256"
        }
      ],
      "name": "Candidates",
      "outputs": [
        {
          "name": "Id",
          "type": "uint256"
        },
        {
          "name": "candidatename",
          "type": "string"
        },
        {
          "name": "branch",
          "type": "string"
        },
        {
          "name": "gender",
          "type": "string"
        },
        {
          "name": "year",
          "type": "string"
        },
        {
          "name": "email_id",
          "type": "string"
        },
        {
          "name": "reg_id",
          "type": "string"
        },
        {
          "name": "vote_count",
          "type": "uint256"
        }
      ],
      "payable": false,
      "stateMutability": "view",
      "type": "function"
    },
    {
      "constant": true,
      "inputs": [
        {
          "name": "",
          "type": "uint256"
        }
      ],
      "name": "candidate_event",
      "outputs": [
        {
          "name": "Id",
          "type": "uint256"
        },
        {
          "name": "candidate_event",
          "type": "string"
        }
      ],
      "payable": false,
      "stateMutability": "view",
      "type": "function"
    },
    {
      "constant": true,
      "inputs": [],
      "name": "voters_count",
      "outputs": [
        {
          "name": "",
          "type": "uint256"
        }
      ],
      "payable": false,
      "stateMutability": "view",
      "type": "function"
    },
    {
      "constant": true,
      "inputs": [],
      "name": "Candidate_count",
      "outputs": [
        {
          "name": "",
          "type": "uint256"
        }
      ],
      "payable": false,
      "stateMutability": "view",
      "type": "function"
    },
    {
      "constant": true,
      "inputs": [
        {
          "name": "",
          "type": "uint256"
        }
      ],
      "name": "Users_rem",
      "outputs": [
        {
          "name": "voters_ID",
          "type": "uint256"
        },
        {
          "name": "has_voted",
          "type": "bool"
        },
        {
          "name": "key",
          "type": "string"
        }
      ],
      "payable": false,
      "stateMutability": "view",
      "type": "function"
    },
    {
      "constant": true,
      "inputs": [
        {
          "name": "",
          "type": "address"
        }
      ],
      "name": "voters",
      "outputs": [
        {
          "name": "",
          "type": "bool"
        }
      ],
      "payable": false,
      "stateMutability": "view",
      "type": "function"
    },
    {
      "anonymous": false,
      "inputs": [
        {
          "indexed": true,
          "name": "_candidateId",
          "type": "uint256"
        }
      ],
      "name": "votedEvent",
      "type": "event"
    },
    {
      "constant": false,
      "inputs": [
        {
          "name": "_cand",
          "type": "string"
        },
        {
          "name": "_branch",
          "type": "string"
        },
        {
          "name": "_gender",
          "type": "string"
        },
        {
          "name": "_email",
          "type": "string"
        },
        {
          "name": "_year",
          "type": "string"
        },
        {
          "name": "_reg_id",
          "type": "string"
        },
        {
          "name": "_event",
          "type": "string"
        }
      ],
      "name": "addCandidate",
      "outputs": [],
      "payable": true,
      "stateMutability": "payable",
      "type": "function"
    },
    {
      "constant": false,
      "inputs": [
        {
          "name": "_hasvoted",
          "type": "bool"
        },
        {
          "name": "_votername",
          "type": "string"
        },
        {
          "name": "_regno",
          "type": "string"
        },
        {
          "name": "_voterbranch",
          "type": "string"
        },
        {
          "name": "_voteryear",
          "type": "string"
        },
        {
          "name": "_emailid",
          "type": "string"
        },
        {
          "name": "_pubkey",
          "type": "string"
        }
      ],
      "name": "addVoter",
      "outputs": [],
      "payable": true,
      "stateMutability": "payable",
      "type": "function"
    },
    {
      "constant": false,
      "inputs": [
        {
          "name": "_candidateId",
          "type": "uint256"
        }
      ],
      "name": "vote",
      "outputs": [],
      "payable": false,
      "stateMutability": "nonpayable",
      "type": "function"
    }
  ],
  "bytecode": "0x608060405234801561001057600080fd5b50611efb806100206000396000f3fe6080604052600436106100a4576000357c0100000000000000000000000000000000000000000000000000000000900463ffffffff1680630121b93f146100a95780631e98fd1c146100e4578063290e92121461034f5780632fefef271461062d57806340dec728146106e85780634c7265541461071357806359a2d0551461073e57806388c69e6c14610804578063a3ec138d14610bbe578063f6fb060614610c27575b600080fd5b3480156100b557600080fd5b506100e2600480360360208110156100cc57600080fd5b810190808035906020019092919050505061106c565b005b3480156100f057600080fd5b5061011d6004803603602081101561010757600080fd5b8101908080359060200190929190505050611262565b60405180878152602001806020018060200180602001806020018060200186810386528b818151815260200191508051906020019080838360005b83811015610173578082015181840152602081019050610158565b50505050905090810190601f1680156101a05780820380516001836020036101000a031916815260200191505b5086810385528a818151815260200191508051906020019080838360005b838110156101d95780820151818401526020810190506101be565b50505050905090810190601f1680156102065780820380516001836020036101000a031916815260200191505b50868103845289818151815260200191508051906020019080838360005b8381101561023f578082015181840152602081019050610224565b50505050905090810190601f16801561026c5780820380516001836020036101000a031916815260200191505b50868103835288818151815260200191508051906020019080838360005b838110156102a557808201518184015260208101905061028a565b50505050905090810190601f1680156102d25780820380516001836020036101000a031916815260200191505b50868103825287818151815260200191508051906020019080838360005b8381101561030b5780820151818401526020810190506102f0565b50505050905090810190601f1680156103385780820380516001836020036101000a031916815260200191505b509b50505050505050505050505060405180910390f35b34801561035b57600080fd5b506103886004803603602081101561037257600080fd5b8101908080359060200190929190505050611596565b6040518089815260200180602001806020018060200180602001806020018060200188815260200187810387528e818151815260200191508051906020019080838360005b838110156103e85780820151818401526020810190506103cd565b50505050905090810190601f1680156104155780820380516001836020036101000a031916815260200191505b5087810386528d818151815260200191508051906020019080838360005b8381101561044e578082015181840152602081019050610433565b50505050905090810190601f16801561047b5780820380516001836020036101000a031916815260200191505b5087810385528c818151815260200191508051906020019080838360005b838110156104b4578082015181840152602081019050610499565b50505050905090810190601f1680156104e15780820380516001836020036101000a031916815260200191505b5087810384528b818151815260200191508051906020019080838360005b8381101561051a5780820151818401526020810190506104ff565b50505050905090810190601f1680156105475780820380516001836020036101000a031916815260200191505b5087810383528a818151815260200191508051906020019080838360005b83811015610580578082015181840152602081019050610565565b50505050905090810190601f1680156105ad5780820380516001836020036101000a031916815260200191505b50878103825289818151815260200191508051906020019080838360005b838110156105e65780820151818401526020810190506105cb565b50505050905090810190601f1680156106135780820380516001836020036101000a031916815260200191505b509e50505050505050505050505050505060405180910390f35b34801561063957600080fd5b506106666004803603602081101561065057600080fd5b810190808035906020019092919050505061196e565b6040518083815260200180602001828103825283818151815260200191508051906020019080838360005b838110156106ac578082015181840152602081019050610691565b50505050905090810190601f1680156106d95780820380516001836020036101000a031916815260200191505b50935050505060405180910390f35b3480156106f457600080fd5b506106fd611a2a565b6040518082815260200191505060405180910390f35b34801561071f57600080fd5b50610728611a30565b6040518082815260200191505060405180910390f35b34801561074a57600080fd5b506107776004803603602081101561076157600080fd5b8101908080359060200190929190505050611a36565b604051808481526020018315151515815260200180602001828103825283818151815260200191508051906020019080838360005b838110156107c75780820151818401526020810190506107ac565b50505050905090810190601f1680156107f45780820380516001836020036101000a031916815260200191505b5094505050505060405180910390f35b610bbc600480360360e081101561081a57600080fd5b810190808035151590602001909291908035906020019064010000000081111561084357600080fd5b82018360208201111561085557600080fd5b8035906020019184600183028401116401000000008311171561087757600080fd5b91908080601f016020809104026020016040519081016040528093929190818152602001838380828437600081840152601f19601f820116905080830192505050505050509192919290803590602001906401000000008111156108da57600080fd5b8201836020820111156108ec57600080fd5b8035906020019184600183028401116401000000008311171561090e57600080fd5b91908080601f016020809104026020016040519081016040528093929190818152602001838380828437600081840152601f19601f8201169050808301925050505050505091929192908035906020019064010000000081111561097157600080fd5b82018360208201111561098357600080fd5b803590602001918460018302840111640100000000831117156109a557600080fd5b91908080601f016020809104026020016040519081016040528093929190818152602001838380828437600081840152601f19601f82011690508083019250505050505050919291929080359060200190640100000000811115610a0857600080fd5b820183602082011115610a1a57600080fd5b80359060200191846001830284011164010000000083111715610a3c57600080fd5b91908080601f016020809104026020016040519081016040528093929190818152602001838380828437600081840152601f19601f82011690508083019250505050505050919291929080359060200190640100000000811115610a9f57600080fd5b820183602082011115610ab157600080fd5b80359060200191846001830284011164010000000083111715610ad357600080fd5b91908080601f016020809104026020016040519081016040528093929190818152602001838380828437600081840152601f19601f82011690508083019250505050505050919291929080359060200190640100000000811115610b3657600080fd5b820183602082011115610b4857600080fd5b80359060200191846001830284011164010000000083111715610b6a57600080fd5b91908080601f016020809104026020016040519081016040528093929190818152602001838380828437600081840152601f19601f820116905080830192505050505050509192919290505050611b05565b005b348015610bca57600080fd5b50610c0d60048036036020811015610be157600080fd5b81019080803573ffffffffffffffffffffffffffffffffffffffff169060200190929190505050611c81565b604051808215151515815260200191505060405180910390f35b61106a600480360360e0811015610c3d57600080fd5b8101908080359060200190640100000000811115610c5a57600080fd5b820183602082011115610c6c57600080fd5b80359060200191846001830284011164010000000083111715610c8e57600080fd5b91908080601f016020809104026020016040519081016040528093929190818152602001838380828437600081840152601f19601f82011690508083019250505050505050919291929080359060200190640100000000811115610cf157600080fd5b820183602082011115610d0357600080fd5b80359060200191846001830284011164010000000083111715610d2557600080fd5b91908080601f016020809104026020016040519081016040528093929190818152602001838380828437600081840152601f19601f82011690508083019250505050505050919291929080359060200190640100000000811115610d8857600080fd5b820183602082011115610d9a57600080fd5b80359060200191846001830284011164010000000083111715610dbc57600080fd5b91908080601f016020809104026020016040519081016040528093929190818152602001838380828437600081840152601f19601f82011690508083019250505050505050919291929080359060200190640100000000811115610e1f57600080fd5b820183602082011115610e3157600080fd5b80359060200191846001830284011164010000000083111715610e5357600080fd5b91908080601f016020809104026020016040519081016040528093929190818152602001838380828437600081840152601f19601f82011690508083019250505050505050919291929080359060200190640100000000811115610eb657600080fd5b820183602082011115610ec857600080fd5b80359060200191846001830284011164010000000083111715610eea57600080fd5b91908080601f016020809104026020016040519081016040528093929190818152602001838380828437600081840152601f19601f82011690508083019250505050505050919291929080359060200190640100000000811115610f4d57600080fd5b820183602082011115610f5f57600080fd5b80359060200191846001830284011164010000000083111715610f8157600080fd5b91908080601f016020809104026020016040519081016040528093929190818152602001838380828437600081840152601f19601f82011690508083019250505050505050919291929080359060200190640100000000811115610fe457600080fd5b820183602082011115610ff657600080fd5b8035906020019184600183028401116401000000008311171561101857600080fd5b91908080601f016020809104026020016040519081016040528093929190818152602001838380828437600081840152601f19601f820116905080830192505050505050509192919290505050611ca1565b005b600260003373ffffffffffffffffffffffffffffffffffffffff1673ffffffffffffffffffffffffffffffffffffffff16815260200190815260200160002060009054906101000a900460ff1615151561112e576040517f08c379a00000000000000000000000000000000000000000000000000000000081526004018080602001828103825260128152602001807f636865636b20766f74696e6720646f6e653f000000000000000000000000000081525060200191505060405180910390fd5b60008111801561114057506005548111155b15156111b4576040517f08c379a00000000000000000000000000000000000000000000000000000000081526004018080602001828103825260158152602001807f76616c69646174652063616e6469646174655f6964000000000000000000000081525060200191505060405180910390fd5b6001600260003373ffffffffffffffffffffffffffffffffffffffff1673ffffffffffffffffffffffffffffffffffffffff16815260200190815260200160002060006101000a81548160ff0219169083151502179055506003600082815260200190815260200160002060070160008154809291906001019190505550807ffff3c900d938d21d0990d786e819f29b8d05c1ef587b462b939609625b684b1660405160405180910390a250565b6000602052806000526040600020600091509050806000015490806001018054600181600116156101000203166002900480601f0160208091040260200160405190810160405280929190818152602001828054600181600116156101000203166002900480156113145780601f106112e957610100808354040283529160200191611314565b820191906000526020600020905b8154815290600101906020018083116112f757829003601f168201915b505050505090806002018054600181600116156101000203166002900480601f0160208091040260200160405190810160405280929190818152602001828054600181600116156101000203166002900480156113b25780601f10611387576101008083540402835291602001916113b2565b820191906000526020600020905b81548152906001019060200180831161139557829003601f168201915b505050505090806003018054600181600116156101000203166002900480601f0160208091040260200160405190810160405280929190818152602001828054600181600116156101000203166002900480156114505780601f1061142557610100808354040283529160200191611450565b820191906000526020600020905b81548152906001019060200180831161143357829003601f168201915b505050505090806004018054600181600116156101000203166002900480601f0160208091040260200160405190810160405280929190818152602001828054600181600116156101000203166002900480156114ee5780601f106114c3576101008083540402835291602001916114ee565b820191906000526020600020905b8154815290600101906020018083116114d157829003601f168201915b505050505090806005018054600181600116156101000203166002900480601f01602080910402602001604051908101604052809291908181526020018280546001816001161561010002031660029004801561158c5780601f106115615761010080835404028352916020019161158c565b820191906000526020600020905b81548152906001019060200180831161156f57829003601f168201915b5050505050905086565b6003602052806000526040600020600091509050806000015490806001018054600181600116156101000203166002900480601f0160208091040260200160405190810160405280929190818152602001828054600181600116156101000203166002900480156116485780601f1061161d57610100808354040283529160200191611648565b820191906000526020600020905b81548152906001019060200180831161162b57829003601f168201915b505050505090806002018054600181600116156101000203166002900480601f0160208091040260200160405190810160405280929190818152602001828054600181600116156101000203166002900480156116e65780601f106116bb576101008083540402835291602001916116e6565b820191906000526020600020905b8154815290600101906020018083116116c957829003601f168201915b505050505090806003018054600181600116156101000203166002900480601f0160208091040260200160405190810160405280929190818152602001828054600181600116156101000203166002900480156117845780601f1061175957610100808354040283529160200191611784565b820191906000526020600020905b81548152906001019060200180831161176757829003601f168201915b505050505090806004018054600181600116156101000203166002900480601f0160208091040260200160405190810160405280929190818152602001828054600181600116156101000203166002900480156118225780601f106117f757610100808354040283529160200191611822565b820191906000526020600020905b81548152906001019060200180831161180557829003601f168201915b505050505090806005018054600181600116156101000203166002900480601f0160208091040260200160405190810160405280929190818152602001828054600181600116156101000203166002900480156118c05780601f10611895576101008083540402835291602001916118c0565b820191906000526020600020905b8154815290600101906020018083116118a357829003601f168201915b505050505090806006018054600181600116156101000203166002900480601f01602080910402602001604051908101604052809291908181526020018280546001816001161561010002031660029004801561195e5780601f106119335761010080835404028352916020019161195e565b820191906000526020600020905b81548152906001019060200180831161194157829003601f168201915b5050505050908060070154905088565b6004602052806000526040600020600091509050806000015490806001018054600181600116156101000203166002900480601f016020809104026020016040519081016040528092919081815260200182805460018160011615610100020316600290048015611a205780601f106119f557610100808354040283529160200191611a20565b820191906000526020600020905b815481529060010190602001808311611a0357829003601f168201915b5050505050905082565b60065481565b60055481565b60016020528060005260406000206000915090508060000154908060010160009054906101000a900460ff1690806002018054600181600116156101000203166002900480601f016020809104026020016040519081016040528092919081815260200182805460018160011615610100020316600290048015611afb5780601f10611ad057610100808354040283529160200191611afb565b820191906000526020600020905b815481529060010190602001808311611ade57829003601f168201915b5050505050905083565b60c0604051908101604052806006548152602001878152602001868152602001858152602001848152602001838152506000806006548152602001908152602001600020600082015181600001556020820151816001019080519060200190611b6f929190611e2a565b506040820151816002019080519060200190611b8c929190611e2a565b506060820151816003019080519060200190611ba9929190611e2a565b506080820151816004019080519060200190611bc6929190611e2a565b5060a0820151816005019080519060200190611be3929190611e2a565b5090505060606040519081016040528060065481526020018815158152602001828152506001600060065481526020019081526020016000206000820151816000015560208201518160010160006101000a81548160ff0219169083151502179055506040820151816002019080519060200190611c62929190611e2a565b5090505060066000815480929190600101919050555050505050505050565b60026020528060005260406000206000915054906101000a900460ff1681565b6101006040519081016040528060055481526020018881526020018781526020018681526020018581526020018481526020018381526020016000815250600360006005548152602001908152602001600020600082015181600001556020820151816001019080519060200190611d1a929190611e2a565b506040820151816002019080519060200190611d37929190611e2a565b506060820151816003019080519060200190611d54929190611e2a565b506080820151816004019080519060200190611d71929190611e2a565b5060a0820151816005019080519060200190611d8e929190611e2a565b5060c0820151816006019080519060200190611dab929190611e2a565b5060e082015181600701559050506040805190810160405280600554815260200182815250600460006005548152602001908152602001600020600082015181600001556020820151816001019080519060200190611e0b929190611e2a565b5090505060056000815480929190600101919050555050505050505050565b828054600181600116156101000203166002900490600052602060002090601f016020900481019282601f10611e6b57805160ff1916838001178555611e99565b82800160010185558215611e99579182015b82811115611e98578251825591602001919060010190611e7d565b5b509050611ea69190611eaa565b5090565b611ecc91905b80821115611ec8576000816000905550600101611eb0565b5090565b9056fea165627a7a72305820c497e9bb8c85a23638a5a8003a7ea89b2ac8c59618062b9c87cb518e7a32f5420029",
  "source": "pragma solidity >=0.4.9 <0.6.0;\ncontract Candidate_data{\n\n    struct Candidate {\n        uint Id;\n        string candidatename;\n        string branch;\n        string gender;\n        string year;\n        string email_id;\n        string reg_id;\n        uint vote_count;\n    }\n\n    struct users{\n        uint voters_ID;\n        string votername;\n        string Regno;\n        string Branch;\n        string Year;\n        string Emailid;\n    }\n\t\n    struct users_rem{\n        uint voters_ID;\n        bool has_voted;\n        string key;\n        // string publickey;\n        // string privatekey;\n    }\n\n    struct Candidate_event{\n        uint Id;\n        string candidate_event;\n    }\n\n    mapping (uint => users) public Users;\n    mapping (uint =>users_rem) public Users_rem;\n\n    mapping(address => bool) public voters;\n\n    mapping (uint =>Candidate) public Candidates;\n\n    mapping (uint =>Candidate_event) public candidate_event;\n\n    uint public Candidate_count;\n    uint public voters_count ;\n    event votedEvent (\n        uint indexed _candidateId\n    );\n\n    function addCandidate(string memory _cand, string memory _branch, string memory _gender,\n     string memory _email,  string memory _year, string memory _reg_id, string memory _event) public payable {\n        Candidates[Candidate_count] = Candidate(Candidate_count,_cand, _branch, _gender, _email, _year, _reg_id, 0);\n        candidate_event[Candidate_count] = Candidate_event(Candidate_count, _event);\n        Candidate_count ++;\n    }\n    // function addCandidateOther() {\n    // }\n\n    function addVoter(bool _hasvoted,string memory _votername, string memory _regno, string memory _voterbranch,\n    string memory _voteryear,string memory _emailid, string memory _pubkey) public payable{\n\t\tUsers[voters_count] = users(voters_count,_votername,_regno,_voterbranch,_voteryear,_emailid);\n        Users_rem[voters_count] = users_rem(voters_count, _hasvoted,_pubkey);\n\t\tvoters_count++;\n\t}\n\n    function vote (uint _candidateId) public {\n        // require that they haven't voted before\n        require(!voters[msg.sender],\"check voting done?\");\n\n        // require a valid candidate\n        require(_candidateId > 0 && _candidateId <= Candidate_count, \"validate candidate_id\");\n\n        // record that voter has voted\n        voters[msg.sender] = true;\n\n        // update candidate vote Count\n        Candidates[_candidateId].vote_count++;\n\n        // trigger voted event\n        emit votedEvent(_candidateId);\n    }\n\n    // constructor () public{\n    //addCandidate(\"Aman\");\n    //addCandidate(\"Vishal\");\n    // addCandidate(\"demo\", 20, \"M\", \"address\", \"email\", 10,\"sangola\", \"maha\", \"bjp\");\n    // addCandidate(\"Vishwa\", 20, \"M\", \"address\", \"email\", 10,\"sangola\", \"maha\", \"bjp\");\n    // }\n    // function addVote(uint _id) public{\n    //     Candidate memory c =Candidates[_id];\n    //     count_of_vote=c.vote_count;\n    //     count_of_vote =count_of_vote+1;\n    //     c.vote_count=count_of_vote;\n    // }\n}",
  "sourcePath": "/home/nolayercode/Documents/BlockChain/contracts/Candidate_data.sol",
  "compiler": {
    "name": "solc",
    "version": "0.5.0+commit.1d4f565a.Emscripten.clang"
  },
  "schemaVersion": "3.0.9",
  "updatedAt": "2019-05-21T13:24:40.364Z",
  "devdoc": {
    "methods": {}
  },
  "userdoc": {
    "methods": {}
  }
}