{
  "contractName": "Candidate_data",
  "abi": [
    {
      "constant": true,
      "inputs": [
        {
          "name": "",
          "type": "uint256"
        }
      ],
      "name": "Users",
      "outputs": [
        {
          "name": "voters_ID",
          "type": "uint256"
        },
        {
          "name": "votername",
          "type": "string"
        },
        {
          "name": "Regno",
          "type": "string"
        },
        {
          "name": "Branch",
          "type": "string"
        },
        {
          "name": "Year",
          "type": "string"
        },
        {
          "name": "Emailid",
          "type": "string"
        },
        {
          "name": "password",
          "type": "string"
        }
      ],
      "payable": false,
      "stateMutability": "view",
      "type": "function"
    },
    {
      "constant": true,
      "inputs": [
        {
          "name": "",
          "type": "uint256"
        }
      ],
      "name": "Candidates",
      "outputs": [
        {
          "name": "Id",
          "type": "uint256"
        },
        {
          "name": "candidatename",
          "type": "string"
        },
        {
          "name": "branch",
          "type": "string"
        },
        {
          "name": "gender",
          "type": "string"
        },
        {
          "name": "year",
          "type": "string"
        },
        {
          "name": "email_id",
          "type": "string"
        },
        {
          "name": "reg_id",
          "type": "string"
        },
        {
          "name": "vote_count",
          "type": "uint256"
        }
      ],
      "payable": false,
      "stateMutability": "view",
      "type": "function"
    },
    {
      "constant": true,
      "inputs": [
        {
          "name": "",
          "type": "uint256"
        }
      ],
      "name": "candidate_event",
      "outputs": [
        {
          "name": "Id",
          "type": "uint256"
        },
        {
          "name": "candidate_event",
          "type": "string"
        }
      ],
      "payable": false,
      "stateMutability": "view",
      "type": "function"
    },
    {
      "constant": true,
      "inputs": [
        {
          "name": "",
          "type": "address"
        }
      ],
      "name": "Candidate_event_list",
      "outputs": [
        {
          "name": "Id",
          "type": "uint256"
        },
        {
          "name": "candidate_event",
          "type": "string"
        }
      ],
      "payable": false,
      "stateMutability": "view",
      "type": "function"
    },
    {
      "constant": true,
      "inputs": [],
      "name": "voters_count",
      "outputs": [
        {
          "name": "",
          "type": "uint256"
        }
      ],
      "payable": false,
      "stateMutability": "view",
      "type": "function"
    },
    {
      "constant": true,
      "inputs": [
        {
          "name": "",
          "type": "uint256"
        }
      ],
      "name": "Candidate_count",
      "outputs": [
        {
          "name": "",
          "type": "uint256"
        },
        {
          "name": "has_voted",
          "type": "bool"
        },
        {
          "name": "key",
          "type": "string"
        }
      ],
      "payable": false,
      "stateMutability": "view",
      "type": "function"
    },
    {
      "constant": true,
      "inputs": [
        {
          "name": "",
          "type": "address"
        }
      ],
      "name": "users_rem_list",
      "outputs": [
        {
          "name": "voters_ID",
          "type": "uint256"
        },
        {
          "name": "has_voted",
          "type": "bool"
        },
        {
          "name": "key",
          "type": "string"
        }
      ],
      "payable": false,
      "stateMutability": "view",
      "type": "function"
    },
    {
      "anonymous": false,
      "inputs": [
        {
          "indexed": true,
          "name": "",
          "type": "uint256"
        }
      ],
      "name": "Users_rem",
      "type": "function",
      "constant": true,
      "outputs": [
        {
          "name": "voters_ID",
          "type": "uint256"
        },
        {
          "name": "has_voted",
          "type": "bool"
        },
        {
          "name": "key",
          "type": "string"
        }
      ],
      "payable": false,
      "stateMutability": "view"
    },
    {
      "constant": true,
      "inputs": [
        {
          "name": "",
          "type": "address"
        },
        {
          "name": "_branch",
          "type": "string"
        },
        {
          "name": "_gender",
          "type": "string"
        },
        {
          "name": "_email",
          "type": "string"
        },
        {
          "name": "_year",
          "type": "string"
        },
        {
          "name": "_reg_id",
          "type": "string"
        },
        {
          "name": "_event",
          "type": "string"
        }
      ],
      "name": "voters",
      "outputs": [
        {
          "name": "",
          "type": "bool"
        }
      ],
      "payable": false,
      "stateMutability": "view",
      "type": "function"
    },
    {
      "constant": true,
      "inputs": [
        {
          "name": "",
          "type": "address"
        },
        {
          "name": "_votername",
          "type": "string"
        },
        {
          "name": "_regno",
          "type": "string"
        },
        {
          "name": "_voterbranch",
          "type": "string"
        },
        {
          "name": "_voteryear",
          "type": "string"
        },
        {
          "name": "_emailid",
          "type": "string"
        },
        {
          "name": "_pubkey",
          "type": "string"
        }
      ],
      "name": "users_list",
      "outputs": [
        {
          "name": "voters_ID",
          "type": "uint256"
        },
        {
          "name": "votername",
          "type": "string"
        },
        {
          "name": "Regno",
          "type": "string"
        },
        {
          "name": "Branch",
          "type": "string"
        },
        {
          "name": "Year",
          "type": "string"
        },
        {
          "name": "Emailid",
          "type": "string"
        },
        {
          "name": "password",
          "type": "string"
        }
      ],
      "payable": false,
      "stateMutability": "view",
      "type": "function"
    },
    {
      "constant": true,
      "inputs": [
        {
          "name": "",
          "type": "uint256"
        }
      ],
      "name": "admin",
      "outputs": [
        {
          "name": "username",
          "type": "string"
        },
        {
          "name": "password",
          "type": "string"
        }
      ],
      "payable": false,
      "stateMutability": "view",
      "type": "function"
    },
    {
      "constant": true,
      "inputs": [
        {
          "name": "",
          "type": "address"
        }
      ],
      "name": "Candidate_list",
      "outputs": [
        {
          "name": "Id",
          "type": "uint256"
        },
        {
          "name": "candidatename",
          "type": "string"
        },
        {
          "name": "branch",
          "type": "string"
        },
        {
          "name": "gender",
          "type": "string"
        },
        {
          "name": "year",
          "type": "string"
        },
        {
          "name": "email_id",
          "type": "string"
        },
        {
          "name": "reg_id",
          "type": "string"
        },
        {
          "name": "vote_count",
          "type": "uint256"
        }
      ],
      "payable": false,
      "stateMutability": "view",
      "type": "function"
    },
    {
      "anonymous": false,
      "inputs": [
        {
          "indexed": true,
          "name": "_candidateId",
          "type": "uint256"
        }
      ],
      "name": "votedEvent",
      "type": "event"
    },
    {
      "constant": false,
      "inputs": [
        {
          "name": "_cand",
          "type": "string"
        },
        {
          "name": "_branch",
          "type": "string"
        },
        {
          "name": "_gender",
          "type": "string"
        },
        {
          "name": "_email",
          "type": "string"
        },
        {
          "name": "_year",
          "type": "string"
        },
        {
          "name": "_reg_id",
          "type": "string"
        },
        {
          "name": "_event",
          "type": "string"
        }
      ],
      "name": "addCandidate",
      "outputs": [],
      "payable": true,
      "stateMutability": "payable",
      "type": "function"
    },
    {
      "constant": false,
      "inputs": [
        {
          "name": "_hasvoted",
          "type": "bool"
        },
        {
          "name": "_votername",
          "type": "string"
        },
        {
          "name": "_regno",
          "type": "string"
        },
        {
          "name": "_voterbranch",
          "type": "string"
        },
        {
          "name": "_voteryear",
          "type": "string"
        },
        {
          "name": "_emailid",
          "type": "string"
        },
        {
          "name": "_pubkey",
          "type": "string"
        },
        {
          "name": "_pass",
          "type": "string"
        }
      ],
      "name": "addVoter",
      "outputs": [],
      "payable": true,
      "stateMutability": "payable",
      "type": "function"
    },
    {
      "constant": false,
      "inputs": [
        {
          "name": "_candidateId",
          "type": "uint256"
        }
      ],
      "name": "vote",
      "outputs": [],
      "payable": false,
      "stateMutability": "nonpayable",
      "type": "function"
    },
    {
      "constant": true,
      "inputs": [
        {
          "name": "_emailid",
          "type": "string"
        },
        {
          "name": "_password",
          "type": "string"
        }
      ],
      "name": "voter_login",
      "outputs": [
        {
          "name": "",
          "type": "uint256"
        }
      ],
      "payable": false,
      "stateMutability": "view",
      "type": "function"
    },
    {
      "constant": false,
      "inputs": [
        {
          "name": "_username",
          "type": "string"
        },
        {
          "name": "_keyword",
          "type": "string"
        }
      ],
      "name": "adminLogin",
      "outputs": [
        {
          "name": "",
          "type": "uint256"
        }
      ],
      "payable": true,
      "stateMutability": "payable",
      "type": "function"
    }
  ],
  "bytecode": "0x608060405234801561001057600080fd5b50613d1d806100206000396000f3fe6080604052600436106100f1576000357c0100000000000000000000000000000000000000000000000000000000900463ffffffff1680630121b93f146100f65780631e98fd1c14610131578063237bc19714610408578063290e92121461057b5780632fefef27146108595780633156f1231461091457806340dec728146109e55780634c72655414610a10578063542abb7914610a3b57806359a2d05514610b17578063a3ec138d14610bdd578063c34e938314610c46578063c715408014610f33578063d599a1c614611099578063db2dbcdb146111b9578063e8c52c99146114ad578063f6fb0606146118ff575b600080fd5b34801561010257600080fd5b5061012f6004803603602081101561011957600080fd5b8101908080359060200190929190505050611d44565b005b34801561013d57600080fd5b5061016a6004803603602081101561015457600080fd5b8101908080359060200190929190505050611f3a565b6040518088815260200180602001806020018060200180602001806020018060200187810387528d818151815260200191508051906020019080838360005b838110156101c45780820151818401526020810190506101a9565b50505050905090810190601f1680156101f15780820380516001836020036101000a031916815260200191505b5087810386528c818151815260200191508051906020019080838360005b8381101561022a57808201518184015260208101905061020f565b50505050905090810190601f1680156102575780820380516001836020036101000a031916815260200191505b5087810385528b818151815260200191508051906020019080838360005b83811015610290578082015181840152602081019050610275565b50505050905090810190601f1680156102bd5780820380516001836020036101000a031916815260200191505b5087810384528a818151815260200191508051906020019080838360005b838110156102f65780820151818401526020810190506102db565b50505050905090810190601f1680156103235780820380516001836020036101000a031916815260200191505b50878103835289818151815260200191508051906020019080838360005b8381101561035c578082015181840152602081019050610341565b50505050905090810190601f1680156103895780820380516001836020036101000a031916815260200191505b50878103825288818151815260200191508051906020019080838360005b838110156103c25780820151818401526020810190506103a7565b50505050905090810190601f1680156103ef5780820380516001836020036101000a031916815260200191505b509d505050505050505050505050505060405180910390f35b34801561041457600080fd5b506105656004803603604081101561042b57600080fd5b810190808035906020019064010000000081111561044857600080fd5b82018360208201111561045a57600080fd5b8035906020019184600183028401116401000000008311171561047c57600080fd5b91908080601f016020809104026020016040519081016040528093929190818152602001838380828437600081840152601f19601f820116905080830192505050505050509192919290803590602001906401000000008111156104df57600080fd5b8201836020820111156104f157600080fd5b8035906020019184600183028401116401000000008311171561051357600080fd5b91908080601f016020809104026020016040519081016040528093929190818152602001838380828437600081840152601f19601f82011690508083019250505050505050919291929050505061230c565b6040518082815260200191505060405180910390f35b34801561058757600080fd5b506105b46004803603602081101561059e57600080fd5b8101908080359060200190929190505050612684565b6040518089815260200180602001806020018060200180602001806020018060200188815260200187810387528e818151815260200191508051906020019080838360005b838110156106145780820151818401526020810190506105f9565b50505050905090810190601f1680156106415780820380516001836020036101000a031916815260200191505b5087810386528d818151815260200191508051906020019080838360005b8381101561067a57808201518184015260208101905061065f565b50505050905090810190601f1680156106a75780820380516001836020036101000a031916815260200191505b5087810385528c818151815260200191508051906020019080838360005b838110156106e05780820151818401526020810190506106c5565b50505050905090810190601f16801561070d5780820380516001836020036101000a031916815260200191505b5087810384528b818151815260200191508051906020019080838360005b8381101561074657808201518184015260208101905061072b565b50505050905090810190601f1680156107735780820380516001836020036101000a031916815260200191505b5087810383528a818151815260200191508051906020019080838360005b838110156107ac578082015181840152602081019050610791565b50505050905090810190601f1680156107d95780820380516001836020036101000a031916815260200191505b50878103825289818151815260200191508051906020019080838360005b838110156108125780820151818401526020810190506107f7565b50505050905090810190601f16801561083f5780820380516001836020036101000a031916815260200191505b509e50505050505050505050505050505060405180910390f35b34801561086557600080fd5b506108926004803603602081101561087c57600080fd5b8101908080359060200190929190505050612a5c565b6040518083815260200180602001828103825283818151815260200191508051906020019080838360005b838110156108d85780820151818401526020810190506108bd565b50505050905090810190601f1680156109055780820380516001836020036101000a031916815260200191505b50935050505060405180910390f35b34801561092057600080fd5b506109636004803603602081101561093757600080fd5b81019080803573ffffffffffffffffffffffffffffffffffffffff169060200190929190505050612b18565b6040518083815260200180602001828103825283818151815260200191508051906020019080838360005b838110156109a957808201518184015260208101905061098e565b50505050905090810190601f1680156109d65780820380516001836020036101000a031916815260200191505b50935050505060405180910390f35b3480156109f157600080fd5b506109fa612bd4565b6040518082815260200191505060405180910390f35b348015610a1c57600080fd5b50610a25612bda565b6040518082815260200191505060405180910390f35b348015610a4757600080fd5b50610a8a60048036036020811015610a5e57600080fd5b81019080803573ffffffffffffffffffffffffffffffffffffffff169060200190929190505050612be0565b604051808481526020018315151515815260200180602001828103825283818151815260200191508051906020019080838360005b83811015610ada578082015181840152602081019050610abf565b50505050905090810190601f168015610b075780820380516001836020036101000a031916815260200191505b5094505050505060405180910390f35b348015610b2357600080fd5b50610b5060048036036020811015610b3a57600080fd5b8101908080359060200190929190505050612caf565b604051808481526020018315151515815260200180602001828103825283818151815260200191508051906020019080838360005b83811015610ba0578082015181840152602081019050610b85565b50505050905090810190601f168015610bcd5780820380516001836020036101000a031916815260200191505b5094505050505060405180910390f35b348015610be957600080fd5b50610c2c60048036036020811015610c0057600080fd5b81019080803573ffffffffffffffffffffffffffffffffffffffff169060200190929190505050612d7e565b604051808215151515815260200191505060405180910390f35b348015610c5257600080fd5b50610c9560048036036020811015610c6957600080fd5b81019080803573ffffffffffffffffffffffffffffffffffffffff169060200190929190505050612d9e565b6040518088815260200180602001806020018060200180602001806020018060200187810387528d818151815260200191508051906020019080838360005b83811015610cef578082015181840152602081019050610cd4565b50505050905090810190601f168015610d1c5780820380516001836020036101000a031916815260200191505b5087810386528c818151815260200191508051906020019080838360005b83811015610d55578082015181840152602081019050610d3a565b50505050905090810190601f168015610d825780820380516001836020036101000a031916815260200191505b5087810385528b818151815260200191508051906020019080838360005b83811015610dbb578082015181840152602081019050610da0565b50505050905090810190601f168015610de85780820380516001836020036101000a031916815260200191505b5087810384528a818151815260200191508051906020019080838360005b83811015610e21578082015181840152602081019050610e06565b50505050905090810190601f168015610e4e5780820380516001836020036101000a031916815260200191505b50878103835289818151815260200191508051906020019080838360005b83811015610e87578082015181840152602081019050610e6c565b50505050905090810190601f168015610eb45780820380516001836020036101000a031916815260200191505b50878103825288818151815260200191508051906020019080838360005b83811015610eed578082015181840152602081019050610ed2565b50505050905090810190601f168015610f1a5780820380516001836020036101000a031916815260200191505b509d505050505050505050505050505060405180910390f35b61108360048036036040811015610f4957600080fd5b8101908080359060200190640100000000811115610f6657600080fd5b820183602082011115610f7857600080fd5b80359060200191846001830284011164010000000083111715610f9a57600080fd5b91908080601f016020809104026020016040519081016040528093929190818152602001838380828437600081840152601f19601f82011690508083019250505050505050919291929080359060200190640100000000811115610ffd57600080fd5b82018360208201111561100f57600080fd5b8035906020019184600183028401116401000000008311171561103157600080fd5b91908080601f016020809104026020016040519081016040528093929190818152602001838380828437600081840152601f19601f820116905080830192505050505050509192919290505050613170565b6040518082815260200191505060405180910390f35b3480156110a557600080fd5b506110d2600480360360208110156110bc57600080fd5b81019080803590602001909291905050506133f6565b604051808060200180602001838103835285818151815260200191508051906020019080838360005b838110156111165780820151818401526020810190506110fb565b50505050905090810190601f1680156111435780820380516001836020036101000a031916815260200191505b50838103825284818151815260200191508051906020019080838360005b8381101561117c578082015181840152602081019050611161565b50505050905090810190601f1680156111a95780820380516001836020036101000a031916815260200191505b5094505050505060405180910390f35b3480156111c557600080fd5b50611208600480360360208110156111dc57600080fd5b81019080803573ffffffffffffffffffffffffffffffffffffffff16906020019092919050505061354a565b6040518089815260200180602001806020018060200180602001806020018060200188815260200187810387528e818151815260200191508051906020019080838360005b8381101561126857808201518184015260208101905061124d565b50505050905090810190601f1680156112955780820380516001836020036101000a031916815260200191505b5087810386528d818151815260200191508051906020019080838360005b838110156112ce5780820151818401526020810190506112b3565b50505050905090810190601f1680156112fb5780820380516001836020036101000a031916815260200191505b5087810385528c818151815260200191508051906020019080838360005b83811015611334578082015181840152602081019050611319565b50505050905090810190601f1680156113615780820380516001836020036101000a031916815260200191505b5087810384528b818151815260200191508051906020019080838360005b8381101561139a57808201518184015260208101905061137f565b50505050905090810190601f1680156113c75780820380516001836020036101000a031916815260200191505b5087810383528a818151815260200191508051906020019080838360005b838110156114005780820151818401526020810190506113e5565b50505050905090810190601f16801561142d5780820380516001836020036101000a031916815260200191505b50878103825289818151815260200191508051906020019080838360005b8381101561146657808201518184015260208101905061144b565b50505050905090810190601f1680156114935780820380516001836020036101000a031916815260200191505b509e50505050505050505050505050505060405180910390f35b6118fd60048036036101008110156114c457600080fd5b81019080803515159060200190929190803590602001906401000000008111156114ed57600080fd5b8201836020820111156114ff57600080fd5b8035906020019184600183028401116401000000008311171561152157600080fd5b91908080601f016020809104026020016040519081016040528093929190818152602001838380828437600081840152601f19601f8201169050808301925050505050505091929192908035906020019064010000000081111561158457600080fd5b82018360208201111561159657600080fd5b803590602001918460018302840111640100000000831117156115b857600080fd5b91908080601f016020809104026020016040519081016040528093929190818152602001838380828437600081840152601f19601f8201169050808301925050505050505091929192908035906020019064010000000081111561161b57600080fd5b82018360208201111561162d57600080fd5b8035906020019184600183028401116401000000008311171561164f57600080fd5b91908080601f016020809104026020016040519081016040528093929190818152602001838380828437600081840152601f19601f820116905080830192505050505050509192919290803590602001906401000000008111156116b257600080fd5b8201836020820111156116c457600080fd5b803590602001918460018302840111640100000000831117156116e657600080fd5b91908080601f016020809104026020016040519081016040528093929190818152602001838380828437600081840152601f19601f8201169050808301925050505050505091929192908035906020019064010000000081111561174957600080fd5b82018360208201111561175b57600080fd5b8035906020019184600183028401116401000000008311171561177d57600080fd5b91908080601f016020809104026020016040519081016040528093929190818152602001838380828437600081840152601f19601f820116905080830192505050505050509192919290803590602001906401000000008111156117e057600080fd5b8201836020820111156117f257600080fd5b8035906020019184600183028401116401000000008311171561181457600080fd5b91908080601f016020809104026020016040519081016040528093929190818152602001838380828437600081840152601f19601f8201169050808301925050505050505091929192908035906020019064010000000081111561187757600080fd5b82018360208201111561188957600080fd5b803590602001918460018302840111640100000000831117156118ab57600080fd5b91908080601f016020809104026020016040519081016040528093929190818152602001838380828437600081840152601f19601f820116905080830192505050505050509192919290505050613922565b005b611d42600480360360e081101561191557600080fd5b810190808035906020019064010000000081111561193257600080fd5b82018360208201111561194457600080fd5b8035906020019184600183028401116401000000008311171561196657600080fd5b91908080601f016020809104026020016040519081016040528093929190818152602001838380828437600081840152601f19601f820116905080830192505050505050509192919290803590602001906401000000008111156119c957600080fd5b8201836020820111156119db57600080fd5b803590602001918460018302840111640100000000831117156119fd57600080fd5b91908080601f016020809104026020016040519081016040528093929190818152602001838380828437600081840152601f19601f82011690508083019250505050505050919291929080359060200190640100000000811115611a6057600080fd5b820183602082011115611a7257600080fd5b80359060200191846001830284011164010000000083111715611a9457600080fd5b91908080601f016020809104026020016040519081016040528093929190818152602001838380828437600081840152601f19601f82011690508083019250505050505050919291929080359060200190640100000000811115611af757600080fd5b820183602082011115611b0957600080fd5b80359060200191846001830284011164010000000083111715611b2b57600080fd5b91908080601f016020809104026020016040519081016040528093929190818152602001838380828437600081840152601f19601f82011690508083019250505050505050919291929080359060200190640100000000811115611b8e57600080fd5b820183602082011115611ba057600080fd5b80359060200191846001830284011164010000000083111715611bc257600080fd5b91908080601f016020809104026020016040519081016040528093929190818152602001838380828437600081840152601f19601f82011690508083019250505050505050919291929080359060200190640100000000811115611c2557600080fd5b820183602082011115611c3757600080fd5b80359060200191846001830284011164010000000083111715611c5957600080fd5b91908080601f016020809104026020016040519081016040528093929190818152602001838380828437600081840152601f19601f82011690508083019250505050505050919291929080359060200190640100000000811115611cbc57600080fd5b820183602082011115611cce57600080fd5b80359060200191846001830284011164010000000083111715611cf057600080fd5b91908080601f016020809104026020016040519081016040528093929190818152602001838380828437600081840152601f19601f820116905080830192505050505050509192919290505050613ac3565b005b600760003373ffffffffffffffffffffffffffffffffffffffff1673ffffffffffffffffffffffffffffffffffffffff16815260200190815260200160002060009054906101000a900460ff16151515611e06576040517f08c379a00000000000000000000000000000000000000000000000000000000081526004018080602001828103825260128152602001807f636865636b20766f74696e6720646f6e653f000000000000000000000000000081525060200191505060405180910390fd5b600081118015611e185750600a548111155b1515611e8c576040517f08c379a00000000000000000000000000000000000000000000000000000000081526004018080602001828103825260158152602001807f76616c69646174652063616e6469646174655f6964000000000000000000000081525060200191505060405180910390fd5b6001600760003373ffffffffffffffffffffffffffffffffffffffff1673ffffffffffffffffffffffffffffffffffffffff16815260200190815260200160002060006101000a81548160ff0219169083151502179055506008600082815260200190815260200160002060070160008154809291906001019190505550807ffff3c900d938d21d0990d786e819f29b8d05c1ef587b462b939609625b684b1660405160405180910390a250565b6005602052806000526040600020600091509050806000015490806001018054600181600116156101000203166002900480601f016020809104026020016040519081016040528092919081815260200182805460018160011615610100020316600290048015611fec5780601f10611fc157610100808354040283529160200191611fec565b820191906000526020600020905b815481529060010190602001808311611fcf57829003601f168201915b505050505090806002018054600181600116156101000203166002900480601f01602080910402602001604051908101604052809291908181526020018280546001816001161561010002031660029004801561208a5780601f1061205f5761010080835404028352916020019161208a565b820191906000526020600020905b81548152906001019060200180831161206d57829003601f168201915b505050505090806003018054600181600116156101000203166002900480601f0160208091040260200160405190810160405280929190818152602001828054600181600116156101000203166002900480156121285780601f106120fd57610100808354040283529160200191612128565b820191906000526020600020905b81548152906001019060200180831161210b57829003601f168201915b505050505090806004018054600181600116156101000203166002900480601f0160208091040260200160405190810160405280929190818152602001828054600181600116156101000203166002900480156121c65780601f1061219b576101008083540402835291602001916121c6565b820191906000526020600020905b8154815290600101906020018083116121a957829003601f168201915b505050505090806005018054600181600116156101000203166002900480601f0160208091040260200160405190810160405280929190818152602001828054600181600116156101000203166002900480156122645780601f1061223957610100808354040283529160200191612264565b820191906000526020600020905b81548152906001019060200180831161224757829003601f168201915b505050505090806006018054600181600116156101000203166002900480601f0160208091040260200160405190810160405280929190818152602001828054600181600116156101000203166002900480156123025780601f106122d757610100808354040283529160200191612302565b820191906000526020600020905b8154815290600101906020018083116122e557829003601f168201915b5050505050905087565b60006060806000809050600b548111151561267a57600560008281526020019081526020016000206005018054600181600116156101000203166002900480601f0160208091040260200160405190810160405280929190818152602001828054600181600116156101000203166002900480156123cb5780601f106123a0576101008083540402835291602001916123cb565b820191906000526020600020905b8154815290600101906020018083116123ae57829003601f168201915b50505050509250600560008281526020019081526020016000206006018054600181600116156101000203166002900480601f01602080910402602001604051908101604052809291908181526020018280546001816001161561010002031660029004801561247c5780601f106124515761010080835404028352916020019161247c565b820191906000526020600020905b81548152906001019060200180831161245f57829003601f168201915b50505050509150856040516020018082805190602001908083835b6020831015156124bc5780518252602082019150602081019050602083039250612497565b6001836020036101000a03801982511681845116808217855250505050505090500191505060405160208183030381529060405280519060200120836040516020018082805190602001908083835b602083101515612530578051825260208201915060208101905060208303925061250b565b6001836020036101000a0380198251168184511680821785525050505050509050019150506040516020818303038152906040528051906020012014801561265d5750846040516020018082805190602001908083835b6020831015156125ac5780518252602082019150602081019050602083039250612587565b6001836020036101000a03801982511681845116808217855250505050505090500191505060405160208183030381529060405280519060200120826040516020018082805190602001908083835b60208310151561262057805182526020820191506020810190506020830392506125fb565b6001836020036101000a03801982511681845116808217855250505050505090500191505060405160208183030381529060405280519060200120145b1561266e576001935050505061267e565b6000935050505061267e565b5050505b92915050565b6008602052806000526040600020600091509050806000015490806001018054600181600116156101000203166002900480601f0160208091040260200160405190810160405280929190818152602001828054600181600116156101000203166002900480156127365780601f1061270b57610100808354040283529160200191612736565b820191906000526020600020905b81548152906001019060200180831161271957829003601f168201915b505050505090806002018054600181600116156101000203166002900480601f0160208091040260200160405190810160405280929190818152602001828054600181600116156101000203166002900480156127d45780601f106127a9576101008083540402835291602001916127d4565b820191906000526020600020905b8154815290600101906020018083116127b757829003601f168201915b505050505090806003018054600181600116156101000203166002900480601f0160208091040260200160405190810160405280929190818152602001828054600181600116156101000203166002900480156128725780601f1061284757610100808354040283529160200191612872565b820191906000526020600020905b81548152906001019060200180831161285557829003601f168201915b505050505090806004018054600181600116156101000203166002900480601f0160208091040260200160405190810160405280929190818152602001828054600181600116156101000203166002900480156129105780601f106128e557610100808354040283529160200191612910565b820191906000526020600020905b8154815290600101906020018083116128f357829003601f168201915b505050505090806005018054600181600116156101000203166002900480601f0160208091040260200160405190810160405280929190818152602001828054600181600116156101000203166002900480156129ae5780601f10612983576101008083540402835291602001916129ae565b820191906000526020600020905b81548152906001019060200180831161299157829003601f168201915b505050505090806006018054600181600116156101000203166002900480601f016020809104026020016040519081016040528092919081815260200182805460018160011615610100020316600290048015612a4c5780601f10612a2157610100808354040283529160200191612a4c565b820191906000526020600020905b815481529060010190602001808311612a2f57829003601f168201915b5050505050908060070154905088565b6009602052806000526040600020600091509050806000015490806001018054600181600116156101000203166002900480601f016020809104026020016040519081016040528092919081815260200182805460018160011615610100020316600290048015612b0e5780601f10612ae357610100808354040283529160200191612b0e565b820191906000526020600020905b815481529060010190602001808311612af157829003601f168201915b5050505050905082565b6004602052806000526040600020600091509050806000015490806001018054600181600116156101000203166002900480601f016020809104026020016040519081016040528092919081815260200182805460018160011615610100020316600290048015612bca5780601f10612b9f57610100808354040283529160200191612bca565b820191906000526020600020905b815481529060010190602001808311612bad57829003601f168201915b5050505050905082565b600b5481565b600a5481565b60026020528060005260406000206000915090508060000154908060010160009054906101000a900460ff1690806002018054600181600116156101000203166002900480601f016020809104026020016040519081016040528092919081815260200182805460018160011615610100020316600290048015612ca55780601f10612c7a57610100808354040283529160200191612ca5565b820191906000526020600020905b815481529060010190602001808311612c8857829003601f168201915b5050505050905083565b60066020528060005260406000206000915090508060000154908060010160009054906101000a900460ff1690806002018054600181600116156101000203166002900480601f016020809104026020016040519081016040528092919081815260200182805460018160011615610100020316600290048015612d745780601f10612d4957610100808354040283529160200191612d74565b820191906000526020600020905b815481529060010190602001808311612d5757829003601f168201915b5050505050905083565b60076020528060005260406000206000915054906101000a900460ff1681565b6001602052806000526040600020600091509050806000015490806001018054600181600116156101000203166002900480601f016020809104026020016040519081016040528092919081815260200182805460018160011615610100020316600290048015612e505780601f10612e2557610100808354040283529160200191612e50565b820191906000526020600020905b815481529060010190602001808311612e3357829003601f168201915b505050505090806002018054600181600116156101000203166002900480601f016020809104026020016040519081016040528092919081815260200182805460018160011615610100020316600290048015612eee5780601f10612ec357610100808354040283529160200191612eee565b820191906000526020600020905b815481529060010190602001808311612ed157829003601f168201915b505050505090806003018054600181600116156101000203166002900480601f016020809104026020016040519081016040528092919081815260200182805460018160011615610100020316600290048015612f8c5780601f10612f6157610100808354040283529160200191612f8c565b820191906000526020600020905b815481529060010190602001808311612f6f57829003601f168201915b505050505090806004018054600181600116156101000203166002900480601f01602080910402602001604051908101604052809291908181526020018280546001816001161561010002031660029004801561302a5780601f10612fff5761010080835404028352916020019161302a565b820191906000526020600020905b81548152906001019060200180831161300d57829003601f168201915b505050505090806005018054600181600116156101000203166002900480601f0160208091040260200160405190810160405280929190818152602001828054600181600116156101000203166002900480156130c85780601f1061309d576101008083540402835291602001916130c8565b820191906000526020600020905b8154815290600101906020018083116130ab57829003601f168201915b505050505090806006018054600181600116156101000203166002900480601f0160208091040260200160405190810160405280929190818152602001828054600181600116156101000203166002900480156131665780601f1061313b57610100808354040283529160200191613166565b820191906000526020600020905b81548152906001019060200180831161314957829003601f168201915b5050505050905087565b60006060806000809050600b54811115156133ec576040805190810160405280600781526020017f6740672e636f6d0000000000000000000000000000000000000000000000000081525092506040805190810160405280600481526020017f676f7069000000000000000000000000000000000000000000000000000000008152509150856040516020018082805190602001908083835b60208310151561322e5780518252602082019150602081019050602083039250613209565b6001836020036101000a03801982511681845116808217855250505050505090500191505060405160208183030381529060405280519060200120836040516020018082805190602001908083835b6020831015156132a2578051825260208201915060208101905060208303925061327d565b6001836020036101000a038019825116818451168082178552505050505050905001915050604051602081830303815290604052805190602001201480156133cf5750846040516020018082805190602001908083835b60208310151561331e57805182526020820191506020810190506020830392506132f9565b6001836020036101000a03801982511681845116808217855250505050505090500191505060405160208183030381529060405280519060200120826040516020018082805190602001908083835b602083101515613392578051825260208201915060208101905060208303925061336d565b6001836020036101000a03801982511681845116808217855250505050505090500191505060405160208183030381529060405280519060200120145b156133e057600193505050506133f0565b600093505050506133f0565b5050505b92915050565b6000602052806000526040600020600091509050806000018054600181600116156101000203166002900480601f0160208091040260200160405190810160405280929190818152602001828054600181600116156101000203166002900480156134a25780601f10613477576101008083540402835291602001916134a2565b820191906000526020600020905b81548152906001019060200180831161348557829003601f168201915b505050505090806001018054600181600116156101000203166002900480601f0160208091040260200160405190810160405280929190818152602001828054600181600116156101000203166002900480156135405780601f1061351557610100808354040283529160200191613540565b820191906000526020600020905b81548152906001019060200180831161352357829003601f168201915b5050505050905082565b6003602052806000526040600020600091509050806000015490806001018054600181600116156101000203166002900480601f0160208091040260200160405190810160405280929190818152602001828054600181600116156101000203166002900480156135fc5780601f106135d1576101008083540402835291602001916135fc565b820191906000526020600020905b8154815290600101906020018083116135df57829003601f168201915b505050505090806002018054600181600116156101000203166002900480601f01602080910402602001604051908101604052809291908181526020018280546001816001161561010002031660029004801561369a5780601f1061366f5761010080835404028352916020019161369a565b820191906000526020600020905b81548152906001019060200180831161367d57829003601f168201915b505050505090806003018054600181600116156101000203166002900480601f0160208091040260200160405190810160405280929190818152602001828054600181600116156101000203166002900480156137385780601f1061370d57610100808354040283529160200191613738565b820191906000526020600020905b81548152906001019060200180831161371b57829003601f168201915b505050505090806004018054600181600116156101000203166002900480601f0160208091040260200160405190810160405280929190818152602001828054600181600116156101000203166002900480156137d65780601f106137ab576101008083540402835291602001916137d6565b820191906000526020600020905b8154815290600101906020018083116137b957829003601f168201915b505050505090806005018054600181600116156101000203166002900480601f0160208091040260200160405190810160405280929190818152602001828054600181600116156101000203166002900480156138745780601f1061384957610100808354040283529160200191613874565b820191906000526020600020905b81548152906001019060200180831161385757829003601f168201915b505050505090806006018054600181600116156101000203166002900480601f0160208091040260200160405190810160405280929190818152602001828054600181600116156101000203166002900480156139125780601f106138e757610100808354040283529160200191613912565b820191906000526020600020905b8154815290600101906020018083116138f557829003601f168201915b5050505050908060070154905088565b60e060405190810160405280600b5481526020018881526020018781526020018681526020018581526020018481526020018281525060056000600b548152602001908152602001600020600082015181600001556020820151816001019080519060200190613993929190613c4c565b5060408201518160020190805190602001906139b0929190613c4c565b5060608201518160030190805190602001906139cd929190613c4c565b5060808201518160040190805190602001906139ea929190613c4c565b5060a0820151816005019080519060200190613a07929190613c4c565b5060c0820151816006019080519060200190613a24929190613c4c565b50905050606060405190810160405280600b54815260200189151581526020018381525060066000600b5481526020019081526020016000206000820151816000015560208201518160010160006101000a81548160ff0219169083151502179055506040820151816002019080519060200190613aa3929190613c4c565b50905050600b600081548092919060010191905055505050505050505050565b61010060405190810160405280600a548152602001888152602001878152602001868152602001858152602001848152602001838152602001600081525060086000600a548152602001908152602001600020600082015181600001556020820151816001019080519060200190613b3c929190613c4c565b506040820151816002019080519060200190613b59929190613c4c565b506060820151816003019080519060200190613b76929190613c4c565b506080820151816004019080519060200190613b93929190613c4c565b5060a0820151816005019080519060200190613bb0929190613c4c565b5060c0820151816006019080519060200190613bcd929190613c4c565b5060e082015181600701559050506040805190810160405280600a5481526020018281525060096000600a548152602001908152602001600020600082015181600001556020820151816001019080519060200190613c2d929190613c4c565b50905050600a6000815480929190600101919050555050505050505050565b828054600181600116156101000203166002900490600052602060002090601f016020900481019282601f10613c8d57805160ff1916838001178555613cbb565b82800160010185558215613cbb579182015b82811115613cba578251825591602001919060010190613c9f565b5b509050613cc89190613ccc565b5090565b613cee91905b80821115613cea576000816000905550600101613cd2565b5090565b9056fea165627a7a7230582046b76d5cb1f4f06a9f6b465a3c05590f3ef56ffa743b98d6d102e64f222ba99c0029",
  "source": "// pragma solidity >=0.4.9 < 0.6.0;\n// contract Candidate_data{\n\n//     struct Candidate {\n//         uint Id;\n//         string candidatename;\n//         string branch;\n//         string gender;\n//         string year;\n//         string email_id;\n//         string reg_id;\n//         uint vote_count;\n//     }\n\n//     struct users{\n//         uint voters_ID;\n//         string votername;\n//         string Regno;\n//         string Branch;\n//         string Year;\n//         string Emailid;\n//     }\n\n//     struct users_rem{\n//         uint voters_ID;\n//         bool has_voted;\n//         string key;\n//     }\n\n//     struct Candidate_event{\n//         uint Id;\n//         string candidate_event;\n//     }\n\n//     mapping (uint => users) public Users;\n//     mapping (uint =>users_rem) public Users_rem;\n\n//     mapping(address => bool) public voters;\n\n//     mapping (uint =>Candidate) public Candidates;\n\n//     mapping (uint =>Candidate_event) public candidate_event;\n\n//     uint public Candidate_count;\n//     uint public voters_count ;\n//     event votedEvent (\n//         uint indexed _candidateId\n//     );\n\n//     function addCandidate(string memory _cand, string memory _branch, string memory _gender,\n//      string memory _email,  string memory _year, string memory _reg_id, string memory _event) public payable {\n//         Candidates[Candidate_count] = Candidate(Candidate_count,_cand, _branch, _gender, _email, _year, _reg_id, 0);\n//         candidate_event[Candidate_count] = Candidate_event(Candidate_count, _event);\n//         Candidate_count ++;\n//     }\n//     // function addCandidateOther() {\n//     // }\n\n//     function addVoter(bool _hasvoted,string memory _votername, string memory _regno, string memory _voterbranch,\n//     string memory _voteryear,string memory _emailid, string memory _pubkey) public payable{\n// \t\tUsers[voters_count] = users(voters_count,_votername,_regno,_voterbranch,_voteryear,_emailid);\n//         Users_rem[voters_count] = users_rem(voters_count, _hasvoted,_pubkey);\n// \t\tvoters_count++;\n// \t}\n\n//     function vote (uint _candidateId) public {\n//         // require that they haven't voted before\n//         require(!voters[msg.sender],\"check voting done?\");\n\n//         // require a valid candidate\n//         require(_candidateId > 0 && _candidateId <= Candidate_count, \"validate candidate_id\");\n\n//         // record that voter has voted\n//         voters[msg.sender] = true;\n\n//         // update candidate vote Count\n//         Candidates[_candidateId].vote_count++;\n\n//         // trigger voted event\n//         emit votedEvent(_candidateId);\n//     }\n// }\n\n\n\npragma solidity >=0.4.9 < 0.6.0;\ncontract Candidate_data{\n\n //Modified\n    struct Admin{\n        string username;\n        string password;\n    }\n\n    mapping (uint => Admin) public admin;\n    struct Candidate {\n        uint Id;\n        string candidatename;\n        string branch;\n        string gender;\n        string year;\n        string email_id;\n        string reg_id;\n        uint vote_count;\n    }\n\n    struct users{\n        uint voters_ID;\n        string votername;\n        string Regno;\n        string Branch;\n        string Year;\n        string Emailid;\n        string password;\n    }\n\n    struct users_rem{\n        uint voters_ID;\n        bool has_voted;\n        string key;\n    }\n\n    struct Candidate_event{\n        uint Id;\n        string candidate_event;\n    }\n\n    //Modified\n    mapping (address => users) public users_list;\n    mapping (address => users_rem) public users_rem_list;\n    mapping (address => Candidate) public Candidate_list;\n    mapping (address=>Candidate_event) public Candidate_event_list;\n\n    mapping (uint => users) public Users;\n    mapping (uint =>users_rem) public Users_rem;\n\n    mapping(address => bool) public voters;\n\n    mapping (uint =>Candidate) public Candidates;\n\n    mapping (uint =>Candidate_event) public candidate_event;\n\n    uint public Candidate_count;\n    uint public voters_count ;\n    event votedEvent (\n        uint indexed _candidateId\n    );\n\n    function addCandidate(string memory _cand, string memory _branch, string memory _gender,\n     string memory _email,  string memory _year, string memory _reg_id, string memory _event) public payable {\n        Candidates[Candidate_count] = Candidate(Candidate_count,_cand, _branch, _gender, _email, _year, _reg_id, 0);\n        candidate_event[Candidate_count] = Candidate_event(Candidate_count, _event);\n        Candidate_count ++;\n    }\n    // function addCandidateOther() {\n    // }\n\n    function addVoter(bool _hasvoted,string memory _votername, string memory _regno, string memory _voterbranch,\n    string memory _voteryear,string memory _emailid, string memory _pubkey,string memory _pass) public payable{\n\t\tUsers[voters_count] = users(voters_count,_votername,_regno,_voterbranch,_voteryear,_emailid,_pass);\n        Users_rem[voters_count] = users_rem(voters_count, _hasvoted,_pubkey);\n\t\tvoters_count++;\n\t}\n\n    function vote (uint _candidateId) public {\n        // require that they haven't voted before\n        require(!voters[msg.sender],\"check voting done?\");\n\n        // require a valid candidate\n        require(_candidateId > 0 && _candidateId <= Candidate_count, \"validate candidate_id\");\n\n        // record that voter has voted\n        voters[msg.sender] = true;\n\n        // update candidate vote Count\n        Candidates[_candidateId].vote_count++;\n\n        // trigger voted event\n        emit votedEvent(_candidateId);\n    }\n\n\n// These two functions are added \n\n    function voter_login(string memory _emailid, string memory _password) public view returns(uint){\n        string memory mailid;\n        string memory word;\n        \n        for(uint i=0; i<=voters_count; i++){\n            mailid = Users[i].Emailid;\n            word= Users[i].password;    \n            if((keccak256(abi.encodePacked(mailid)) == keccak256(abi.encodePacked(_emailid))) && (keccak256(abi.encodePacked(word)) == keccak256(abi.encodePacked(_password)))){\n                //console.log(\"Login successful\");\n                return 1;\n            }\n            else{\n                return 0;\n            }\n            // return mailid;\n        }\n    }\n\n\n    function adminLogin(string memory _username,string memory _keyword) public  payable returns (uint) {\n        string memory mailid;\n        string memory word;\n        for(uint i=0; i<=voters_count; i++) {\n            mailid = \"g@g.com\";\n            word= \"gopi\";\n            if((keccak256(abi.encodePacked(mailid)) == keccak256(abi.encodePacked(_username))) && (keccak256(abi.encodePacked(word)) == keccak256(abi.encodePacked(_keyword)))){\n                //console.log(\"Login successful\");\n                return 1;\n            }\n            else{\n                return 0;\n            }\n        }\n    }\n\n\n\n\n}",
  "sourcePath": "/home/nolayercode/Documents/BlockChain/contracts/Candidate_data.sol",
  "compiler": {
    "name": "solc",
    "version": "0.5.0+commit.1d4f565a.Emscripten.clang"
  },
  "schemaVersion": "3.0.9",
  "updatedAt": "2019-05-23T09:22:24.442Z",
  "devdoc": {
    "methods": {}
  },
  "userdoc": {
    "methods": {}
  }
}