{
  "contractName": "Candidate_data",
  "abi": [
    {
      "constant": true,
      "inputs": [
        {
          "name": "",
          "type": "uint256"
        }
      ],
      "name": "Users",
      "outputs": [
        {
          "name": "voters_ID",
          "type": "uint256"
        },
        {
          "name": "votername",
          "type": "string"
        },
        {
          "name": "Regno",
          "type": "string"
        },
        {
          "name": "Branch",
          "type": "string"
        },
        {
          "name": "Year",
          "type": "string"
        },
        {
          "name": "Emailid",
          "type": "string"
        },
        {
          "name": "password",
          "type": "string"
        }
      ],
      "payable": false,
      "stateMutability": "view",
      "type": "function"
    },
    {
      "constant": true,
      "inputs": [
        {
          "name": "",
          "type": "uint256"
        }
      ],
      "name": "Candidates",
      "outputs": [
        {
          "name": "Id",
          "type": "uint256"
        },
        {
          "name": "candidatename",
          "type": "string"
        },
        {
          "name": "branch",
          "type": "string"
        },
        {
          "name": "gender",
          "type": "string"
        },
        {
          "name": "year",
          "type": "string"
        },
        {
          "name": "email_id",
          "type": "string"
        },
        {
          "name": "reg_id",
          "type": "string"
        },
        {
          "name": "vote_count",
          "type": "uint256"
        }
      ],
      "payable": false,
      "stateMutability": "view",
      "type": "function"
    },
    {
      "constant": true,
      "inputs": [
        {
          "name": "",
          "type": "uint256"
        }
      ],
      "name": "candidate_event",
      "outputs": [
        {
          "name": "Id",
          "type": "uint256"
        },
        {
          "name": "candidate_event",
          "type": "string"
        }
      ],
      "payable": false,
      "stateMutability": "view",
      "type": "function"
    },
    {
      "constant": true,
      "inputs": [
        {
          "name": "",
          "type": "address"
        }
      ],
      "name": "Candidate_event_list",
      "outputs": [
        {
          "name": "Id",
          "type": "uint256"
        },
        {
          "name": "candidate_event",
          "type": "string"
        }
      ],
      "payable": false,
      "stateMutability": "view",
      "type": "function"
    },
    {
      "constant": true,
      "inputs": [],
      "name": "voters_count",
      "outputs": [
        {
          "name": "",
          "type": "uint256"
        }
      ],
      "payable": false,
      "stateMutability": "view",
      "type": "function"
    },
    {
      "constant": true,
      "inputs": [],
      "name": "Candidate_count",
      "outputs": [
        {
          "name": "",
          "type": "uint256"
        }
      ],
      "payable": false,
      "stateMutability": "view",
      "type": "function"
    },
    {
      "constant": true,
      "inputs": [
        {
          "name": "",
          "type": "address"
        }
      ],
      "name": "users_rem_list",
      "outputs": [
        {
          "name": "voters_ID",
          "type": "uint256"
        },
        {
          "name": "has_voted",
          "type": "bool"
        },
        {
          "name": "key",
          "type": "string"
        }
      ],
      "payable": false,
      "stateMutability": "view",
      "type": "function"
    },
    {
      "constant": true,
      "inputs": [
        {
          "name": "",
          "type": "uint256"
        }
      ],
      "name": "Users_rem",
      "outputs": [
        {
          "name": "voters_ID",
          "type": "uint256"
        },
        {
          "name": "has_voted",
          "type": "bool"
        },
        {
          "name": "key",
          "type": "string"
        }
      ],
      "payable": false,
      "stateMutability": "view",
      "type": "function"
    },
    {
      "constant": true,
      "inputs": [
        {
          "name": "",
          "type": "address"
        }
      ],
      "name": "voters",
      "outputs": [
        {
          "name": "",
          "type": "bool"
        }
      ],
      "payable": false,
      "stateMutability": "view",
      "type": "function"
    },
    {
      "constant": true,
      "inputs": [
        {
          "name": "",
          "type": "address"
        }
      ],
      "name": "users_list",
      "outputs": [
        {
          "name": "voters_ID",
          "type": "uint256"
        },
        {
          "name": "votername",
          "type": "string"
        },
        {
          "name": "Regno",
          "type": "string"
        },
        {
          "name": "Branch",
          "type": "string"
        },
        {
          "name": "Year",
          "type": "string"
        },
        {
          "name": "Emailid",
          "type": "string"
        },
        {
          "name": "password",
          "type": "string"
        }
      ],
      "payable": false,
      "stateMutability": "view",
      "type": "function"
    },
    {
      "constant": true,
      "inputs": [
        {
          "name": "",
          "type": "uint256"
        }
      ],
      "name": "admin",
      "outputs": [
        {
          "name": "username",
          "type": "string"
        },
        {
          "name": "password",
          "type": "string"
        }
      ],
      "payable": false,
      "stateMutability": "view",
      "type": "function"
    },
    {
      "constant": true,
      "inputs": [
        {
          "name": "",
          "type": "address"
        }
      ],
      "name": "Candidate_list",
      "outputs": [
        {
          "name": "Id",
          "type": "uint256"
        },
        {
          "name": "candidatename",
          "type": "string"
        },
        {
          "name": "branch",
          "type": "string"
        },
        {
          "name": "gender",
          "type": "string"
        },
        {
          "name": "year",
          "type": "string"
        },
        {
          "name": "email_id",
          "type": "string"
        },
        {
          "name": "reg_id",
          "type": "string"
        },
        {
          "name": "vote_count",
          "type": "uint256"
        }
      ],
      "payable": false,
      "stateMutability": "view",
      "type": "function"
    },
    {
      "anonymous": false,
      "inputs": [
        {
          "indexed": true,
          "name": "_candidateId",
          "type": "uint256"
        }
      ],
      "name": "votedEvent",
      "type": "event"
    },
    {
      "constant": false,
      "inputs": [
        {
          "name": "_cand",
          "type": "string"
        },
        {
          "name": "_branch",
          "type": "string"
        },
        {
          "name": "_gender",
          "type": "string"
        },
        {
          "name": "_email",
          "type": "string"
        },
        {
          "name": "_year",
          "type": "string"
        },
        {
          "name": "_reg_id",
          "type": "string"
        },
        {
          "name": "_event",
          "type": "string"
        }
      ],
      "name": "addCandidate",
      "outputs": [],
      "payable": true,
      "stateMutability": "payable",
      "type": "function"
    },
    {
      "constant": false,
      "inputs": [
        {
          "name": "_hasvoted",
          "type": "bool"
        },
        {
          "name": "_votername",
          "type": "string"
        },
        {
          "name": "_regno",
          "type": "string"
        },
        {
          "name": "_voterbranch",
          "type": "string"
        },
        {
          "name": "_voteryear",
          "type": "string"
        },
        {
          "name": "_emailid",
          "type": "string"
        },
        {
          "name": "_pubkey",
          "type": "string"
        },
        {
          "name": "_pass",
          "type": "string"
        }
      ],
      "name": "addVoter",
      "outputs": [],
      "payable": true,
      "stateMutability": "payable",
      "type": "function"
    },
    {
      "constant": false,
      "inputs": [
        {
          "name": "_key",
          "type": "string"
        },
        {
          "name": "_regNo",
          "type": "string"
        }
      ],
      "name": "addVote",
      "outputs": [
        {
          "name": "",
          "type": "uint256"
        },
        {
          "name": "",
          "type": "string"
        }
      ],
      "payable": true,
      "stateMutability": "payable",
      "type": "function"
    },
    {
      "constant": false,
      "inputs": [
        {
          "name": "_username",
          "type": "string"
        },
        {
          "name": "_keyword",
          "type": "string"
        }
      ],
      "name": "adminLogin",
      "outputs": [
        {
          "name": "",
          "type": "uint256"
        }
      ],
      "payable": true,
      "stateMutability": "payable",
      "type": "function"
    },
    {
      "constant": false,
      "inputs": [
        {
          "name": "_username",
          "type": "string"
        },
        {
          "name": "_keyword",
          "type": "string"
        }
      ],
      "name": "adminLogin",
      "outputs": [
        {
          "name": "",
          "type": "uint256"
        }
      ],
      "payable": true,
      "stateMutability": "payable",
      "type": "function"
    }
  ],
  "bytecode": "0x608060405234801561001057600080fd5b50613ebc806100206000396000f3fe6080604052600436106100e6576000357c0100000000000000000000000000000000000000000000000000000000900463ffffffff1680631e98fd1c146100eb578063290e9212146103c25780632fefef27146106a05780633156f1231461075b57806340dec7281461082c5780634c72655414610857578063542abb791461088257806359a2d0551461095e578063a3ec138d14610a24578063bae26f4d14610a8d578063c34e938314610bf3578063c715408014610ee0578063d599a1c614611046578063db2dbcdb14611166578063e8c52c991461145a578063f6fb0606146118ac575b600080fd5b3480156100f757600080fd5b506101246004803603602081101561010e57600080fd5b8101908080359060200190929190505050611cf1565b6040518088815260200180602001806020018060200180602001806020018060200187810387528d818151815260200191508051906020019080838360005b8381101561017e578082015181840152602081019050610163565b50505050905090810190601f1680156101ab5780820380516001836020036101000a031916815260200191505b5087810386528c818151815260200191508051906020019080838360005b838110156101e45780820151818401526020810190506101c9565b50505050905090810190601f1680156102115780820380516001836020036101000a031916815260200191505b5087810385528b818151815260200191508051906020019080838360005b8381101561024a57808201518184015260208101905061022f565b50505050905090810190601f1680156102775780820380516001836020036101000a031916815260200191505b5087810384528a818151815260200191508051906020019080838360005b838110156102b0578082015181840152602081019050610295565b50505050905090810190601f1680156102dd5780820380516001836020036101000a031916815260200191505b50878103835289818151815260200191508051906020019080838360005b838110156103165780820151818401526020810190506102fb565b50505050905090810190601f1680156103435780820380516001836020036101000a031916815260200191505b50878103825288818151815260200191508051906020019080838360005b8381101561037c578082015181840152602081019050610361565b50505050905090810190601f1680156103a95780820380516001836020036101000a031916815260200191505b509d505050505050505050505050505060405180910390f35b3480156103ce57600080fd5b506103fb600480360360208110156103e557600080fd5b81019080803590602001909291905050506120c3565b6040518089815260200180602001806020018060200180602001806020018060200188815260200187810387528e818151815260200191508051906020019080838360005b8381101561045b578082015181840152602081019050610440565b50505050905090810190601f1680156104885780820380516001836020036101000a031916815260200191505b5087810386528d818151815260200191508051906020019080838360005b838110156104c15780820151818401526020810190506104a6565b50505050905090810190601f1680156104ee5780820380516001836020036101000a031916815260200191505b5087810385528c818151815260200191508051906020019080838360005b8381101561052757808201518184015260208101905061050c565b50505050905090810190601f1680156105545780820380516001836020036101000a031916815260200191505b5087810384528b818151815260200191508051906020019080838360005b8381101561058d578082015181840152602081019050610572565b50505050905090810190601f1680156105ba5780820380516001836020036101000a031916815260200191505b5087810383528a818151815260200191508051906020019080838360005b838110156105f35780820151818401526020810190506105d8565b50505050905090810190601f1680156106205780820380516001836020036101000a031916815260200191505b50878103825289818151815260200191508051906020019080838360005b8381101561065957808201518184015260208101905061063e565b50505050905090810190601f1680156106865780820380516001836020036101000a031916815260200191505b509e50505050505050505050505050505060405180910390f35b3480156106ac57600080fd5b506106d9600480360360208110156106c357600080fd5b810190808035906020019092919050505061249b565b6040518083815260200180602001828103825283818151815260200191508051906020019080838360005b8381101561071f578082015181840152602081019050610704565b50505050905090810190601f16801561074c5780820380516001836020036101000a031916815260200191505b50935050505060405180910390f35b34801561076757600080fd5b506107aa6004803603602081101561077e57600080fd5b81019080803573ffffffffffffffffffffffffffffffffffffffff169060200190929190505050612557565b6040518083815260200180602001828103825283818151815260200191508051906020019080838360005b838110156107f05780820151818401526020810190506107d5565b50505050905090810190601f16801561081d5780820380516001836020036101000a031916815260200191505b50935050505060405180910390f35b34801561083857600080fd5b50610841612613565b6040518082815260200191505060405180910390f35b34801561086357600080fd5b5061086c612619565b6040518082815260200191505060405180910390f35b34801561088e57600080fd5b506108d1600480360360208110156108a557600080fd5b81019080803573ffffffffffffffffffffffffffffffffffffffff16906020019092919050505061261f565b604051808481526020018315151515815260200180602001828103825283818151815260200191508051906020019080838360005b83811015610921578082015181840152602081019050610906565b50505050905090810190601f16801561094e5780820380516001836020036101000a031916815260200191505b5094505050505060405180910390f35b34801561096a57600080fd5b506109976004803603602081101561098157600080fd5b81019080803590602001909291905050506126ee565b604051808481526020018315151515815260200180602001828103825283818151815260200191508051906020019080838360005b838110156109e75780820151818401526020810190506109cc565b50505050905090810190601f168015610a145780820380516001836020036101000a031916815260200191505b5094505050505060405180910390f35b348015610a3057600080fd5b50610a7360048036036020811015610a4757600080fd5b81019080803573ffffffffffffffffffffffffffffffffffffffff1690602001909291905050506127bd565b604051808215151515815260200191505060405180910390f35b610bdd60048036036040811015610aa357600080fd5b8101908080359060200190640100000000811115610ac057600080fd5b820183602082011115610ad257600080fd5b80359060200191846001830284011164010000000083111715610af457600080fd5b91908080601f016020809104026020016040519081016040528093929190818152602001838380828437600081840152601f19601f82011690508083019250505050505050919291929080359060200190640100000000811115610b5757600080fd5b820183602082011115610b6957600080fd5b80359060200191846001830284011164010000000083111715610b8b57600080fd5b91908080601f016020809104026020016040519081016040528093929190818152602001838380828437600081840152601f19601f8201169050808301925050505050505091929192905050506127dd565b6040518082815260200191505060405180910390f35b348015610bff57600080fd5b50610c4260048036036020811015610c1657600080fd5b81019080803573ffffffffffffffffffffffffffffffffffffffff169060200190929190505050612bd3565b6040518088815260200180602001806020018060200180602001806020018060200187810387528d818151815260200191508051906020019080838360005b83811015610c9c578082015181840152602081019050610c81565b50505050905090810190601f168015610cc95780820380516001836020036101000a031916815260200191505b5087810386528c818151815260200191508051906020019080838360005b83811015610d02578082015181840152602081019050610ce7565b50505050905090810190601f168015610d2f5780820380516001836020036101000a031916815260200191505b5087810385528b818151815260200191508051906020019080838360005b83811015610d68578082015181840152602081019050610d4d565b50505050905090810190601f168015610d955780820380516001836020036101000a031916815260200191505b5087810384528a818151815260200191508051906020019080838360005b83811015610dce578082015181840152602081019050610db3565b50505050905090810190601f168015610dfb5780820380516001836020036101000a031916815260200191505b50878103835289818151815260200191508051906020019080838360005b83811015610e34578082015181840152602081019050610e19565b50505050905090810190601f168015610e615780820380516001836020036101000a031916815260200191505b50878103825288818151815260200191508051906020019080838360005b83811015610e9a578082015181840152602081019050610e7f565b50505050905090810190601f168015610ec75780820380516001836020036101000a031916815260200191505b509d505050505050505050505050505060405180910390f35b61103060048036036040811015610ef657600080fd5b8101908080359060200190640100000000811115610f1357600080fd5b820183602082011115610f2557600080fd5b80359060200191846001830284011164010000000083111715610f4757600080fd5b91908080601f016020809104026020016040519081016040528093929190818152602001838380828437600081840152601f19601f82011690508083019250505050505050919291929080359060200190640100000000811115610faa57600080fd5b820183602082011115610fbc57600080fd5b80359060200191846001830284011164010000000083111715610fde57600080fd5b91908080601f016020809104026020016040519081016040528093929190818152602001838380828437600081840152601f19601f820116905080830192505050505050509192919290505050612fa5565b6040518082815260200191505060405180910390f35b34801561105257600080fd5b5061107f6004803603602081101561106957600080fd5b8101908080359060200190929190505050613595565b604051808060200180602001838103835285818151815260200191508051906020019080838360005b838110156110c35780820151818401526020810190506110a8565b50505050905090810190601f1680156110f05780820380516001836020036101000a031916815260200191505b50838103825284818151815260200191508051906020019080838360005b8381101561112957808201518184015260208101905061110e565b50505050905090810190601f1680156111565780820380516001836020036101000a031916815260200191505b5094505050505060405180910390f35b34801561117257600080fd5b506111b56004803603602081101561118957600080fd5b81019080803573ffffffffffffffffffffffffffffffffffffffff1690602001909291905050506136e9565b6040518089815260200180602001806020018060200180602001806020018060200188815260200187810387528e818151815260200191508051906020019080838360005b838110156112155780820151818401526020810190506111fa565b50505050905090810190601f1680156112425780820380516001836020036101000a031916815260200191505b5087810386528d818151815260200191508051906020019080838360005b8381101561127b578082015181840152602081019050611260565b50505050905090810190601f1680156112a85780820380516001836020036101000a031916815260200191505b5087810385528c818151815260200191508051906020019080838360005b838110156112e15780820151818401526020810190506112c6565b50505050905090810190601f16801561130e5780820380516001836020036101000a031916815260200191505b5087810384528b818151815260200191508051906020019080838360005b8381101561134757808201518184015260208101905061132c565b50505050905090810190601f1680156113745780820380516001836020036101000a031916815260200191505b5087810383528a818151815260200191508051906020019080838360005b838110156113ad578082015181840152602081019050611392565b50505050905090810190601f1680156113da5780820380516001836020036101000a031916815260200191505b50878103825289818151815260200191508051906020019080838360005b838110156114135780820151818401526020810190506113f8565b50505050905090810190601f1680156114405780820380516001836020036101000a031916815260200191505b509e50505050505050505050505050505060405180910390f35b6118aa600480360361010081101561147157600080fd5b810190808035151590602001909291908035906020019064010000000081111561149a57600080fd5b8201836020820111156114ac57600080fd5b803590602001918460018302840111640100000000831117156114ce57600080fd5b91908080601f016020809104026020016040519081016040528093929190818152602001838380828437600081840152601f19601f8201169050808301925050505050505091929192908035906020019064010000000081111561153157600080fd5b82018360208201111561154357600080fd5b8035906020019184600183028401116401000000008311171561156557600080fd5b91908080601f016020809104026020016040519081016040528093929190818152602001838380828437600081840152601f19601f820116905080830192505050505050509192919290803590602001906401000000008111156115c857600080fd5b8201836020820111156115da57600080fd5b803590602001918460018302840111640100000000831117156115fc57600080fd5b91908080601f016020809104026020016040519081016040528093929190818152602001838380828437600081840152601f19601f8201169050808301925050505050505091929192908035906020019064010000000081111561165f57600080fd5b82018360208201111561167157600080fd5b8035906020019184600183028401116401000000008311171561169357600080fd5b91908080601f016020809104026020016040519081016040528093929190818152602001838380828437600081840152601f19601f820116905080830192505050505050509192919290803590602001906401000000008111156116f657600080fd5b82018360208201111561170857600080fd5b8035906020019184600183028401116401000000008311171561172a57600080fd5b91908080601f016020809104026020016040519081016040528093929190818152602001838380828437600081840152601f19601f8201169050808301925050505050505091929192908035906020019064010000000081111561178d57600080fd5b82018360208201111561179f57600080fd5b803590602001918460018302840111640100000000831117156117c157600080fd5b91908080601f016020809104026020016040519081016040528093929190818152602001838380828437600081840152601f19601f8201169050808301925050505050505091929192908035906020019064010000000081111561182457600080fd5b82018360208201111561183657600080fd5b8035906020019184600183028401116401000000008311171561185857600080fd5b91908080601f016020809104026020016040519081016040528093929190818152602001838380828437600081840152601f19601f820116905080830192505050505050509192919290505050613ac1565b005b611cef600480360360e08110156118c257600080fd5b81019080803590602001906401000000008111156118df57600080fd5b8201836020820111156118f157600080fd5b8035906020019184600183028401116401000000008311171561191357600080fd5b91908080601f016020809104026020016040519081016040528093929190818152602001838380828437600081840152601f19601f8201169050808301925050505050505091929192908035906020019064010000000081111561197657600080fd5b82018360208201111561198857600080fd5b803590602001918460018302840111640100000000831117156119aa57600080fd5b91908080601f016020809104026020016040519081016040528093929190818152602001838380828437600081840152601f19601f82011690508083019250505050505050919291929080359060200190640100000000811115611a0d57600080fd5b820183602082011115611a1f57600080fd5b80359060200191846001830284011164010000000083111715611a4157600080fd5b91908080601f016020809104026020016040519081016040528093929190818152602001838380828437600081840152601f19601f82011690508083019250505050505050919291929080359060200190640100000000811115611aa457600080fd5b820183602082011115611ab657600080fd5b80359060200191846001830284011164010000000083111715611ad857600080fd5b91908080601f016020809104026020016040519081016040528093929190818152602001838380828437600081840152601f19601f82011690508083019250505050505050919291929080359060200190640100000000811115611b3b57600080fd5b820183602082011115611b4d57600080fd5b80359060200191846001830284011164010000000083111715611b6f57600080fd5b91908080601f016020809104026020016040519081016040528093929190818152602001838380828437600081840152601f19601f82011690508083019250505050505050919291929080359060200190640100000000811115611bd257600080fd5b820183602082011115611be457600080fd5b80359060200191846001830284011164010000000083111715611c0657600080fd5b91908080601f016020809104026020016040519081016040528093929190818152602001838380828437600081840152601f19601f82011690508083019250505050505050919291929080359060200190640100000000811115611c6957600080fd5b820183602082011115611c7b57600080fd5b80359060200191846001830284011164010000000083111715611c9d57600080fd5b91908080601f016020809104026020016040519081016040528093929190818152602001838380828437600081840152601f19601f820116905080830192505050505050509192919290505050613c62565b005b6005602052806000526040600020600091509050806000015490806001018054600181600116156101000203166002900480601f016020809104026020016040519081016040528092919081815260200182805460018160011615610100020316600290048015611da35780601f10611d7857610100808354040283529160200191611da3565b820191906000526020600020905b815481529060010190602001808311611d8657829003601f168201915b505050505090806002018054600181600116156101000203166002900480601f016020809104026020016040519081016040528092919081815260200182805460018160011615610100020316600290048015611e415780601f10611e1657610100808354040283529160200191611e41565b820191906000526020600020905b815481529060010190602001808311611e2457829003601f168201915b505050505090806003018054600181600116156101000203166002900480601f016020809104026020016040519081016040528092919081815260200182805460018160011615610100020316600290048015611edf5780601f10611eb457610100808354040283529160200191611edf565b820191906000526020600020905b815481529060010190602001808311611ec257829003601f168201915b505050505090806004018054600181600116156101000203166002900480601f016020809104026020016040519081016040528092919081815260200182805460018160011615610100020316600290048015611f7d5780601f10611f5257610100808354040283529160200191611f7d565b820191906000526020600020905b815481529060010190602001808311611f6057829003601f168201915b505050505090806005018054600181600116156101000203166002900480601f01602080910402602001604051908101604052809291908181526020018280546001816001161561010002031660029004801561201b5780601f10611ff05761010080835404028352916020019161201b565b820191906000526020600020905b815481529060010190602001808311611ffe57829003601f168201915b505050505090806006018054600181600116156101000203166002900480601f0160208091040260200160405190810160405280929190818152602001828054600181600116156101000203166002900480156120b95780601f1061208e576101008083540402835291602001916120b9565b820191906000526020600020905b81548152906001019060200180831161209c57829003601f168201915b5050505050905087565b6008602052806000526040600020600091509050806000015490806001018054600181600116156101000203166002900480601f0160208091040260200160405190810160405280929190818152602001828054600181600116156101000203166002900480156121755780601f1061214a57610100808354040283529160200191612175565b820191906000526020600020905b81548152906001019060200180831161215857829003601f168201915b505050505090806002018054600181600116156101000203166002900480601f0160208091040260200160405190810160405280929190818152602001828054600181600116156101000203166002900480156122135780601f106121e857610100808354040283529160200191612213565b820191906000526020600020905b8154815290600101906020018083116121f657829003601f168201915b505050505090806003018054600181600116156101000203166002900480601f0160208091040260200160405190810160405280929190818152602001828054600181600116156101000203166002900480156122b15780601f10612286576101008083540402835291602001916122b1565b820191906000526020600020905b81548152906001019060200180831161229457829003601f168201915b505050505090806004018054600181600116156101000203166002900480601f01602080910402602001604051908101604052809291908181526020018280546001816001161561010002031660029004801561234f5780601f106123245761010080835404028352916020019161234f565b820191906000526020600020905b81548152906001019060200180831161233257829003601f168201915b505050505090806005018054600181600116156101000203166002900480601f0160208091040260200160405190810160405280929190818152602001828054600181600116156101000203166002900480156123ed5780601f106123c2576101008083540402835291602001916123ed565b820191906000526020600020905b8154815290600101906020018083116123d057829003601f168201915b505050505090806006018054600181600116156101000203166002900480601f01602080910402602001604051908101604052809291908181526020018280546001816001161561010002031660029004801561248b5780601f106124605761010080835404028352916020019161248b565b820191906000526020600020905b81548152906001019060200180831161246e57829003601f168201915b5050505050908060070154905088565b6009602052806000526040600020600091509050806000015490806001018054600181600116156101000203166002900480601f01602080910402602001604051908101604052809291908181526020018280546001816001161561010002031660029004801561254d5780601f106125225761010080835404028352916020019161254d565b820191906000526020600020905b81548152906001019060200180831161253057829003601f168201915b5050505050905082565b6004602052806000526040600020600091509050806000015490806001018054600181600116156101000203166002900480601f0160208091040260200160405190810160405280929190818152602001828054600181600116156101000203166002900480156126095780601f106125de57610100808354040283529160200191612609565b820191906000526020600020905b8154815290600101906020018083116125ec57829003601f168201915b5050505050905082565b600b5481565b600a5481565b60026020528060005260406000206000915090508060000154908060010160009054906101000a900460ff1690806002018054600181600116156101000203166002900480601f0160208091040260200160405190810160405280929190818152602001828054600181600116156101000203166002900480156126e45780601f106126b9576101008083540402835291602001916126e4565b820191906000526020600020905b8154815290600101906020018083116126c757829003601f168201915b5050505050905083565b60066020528060005260406000206000915090508060000154908060010160009054906101000a900460ff1690806002018054600181600116156101000203166002900480601f0160208091040260200160405190810160405280929190818152602001828054600181600116156101000203166002900480156127b35780601f10612788576101008083540402835291602001916127b3565b820191906000526020600020905b81548152906001019060200180831161279657829003601f168201915b5050505050905083565b60076020528060005260406000206000915054906101000a900460ff1681565b6000806060600660008081526020019081526020016000206002018054600181600116156101000203166002900480601f01602080910402602001604051908101604052809291908181526020018280546001816001161561010002031660029004801561288c5780601f106128615761010080835404028352916020019161288c565b820191906000526020600020905b81548152906001019060200180831161286f57829003601f168201915b5050505050905060008090506060826040516020018082805190602001908083835b6020831015156128d357805182526020820191506020810190506020830392506128ae565b6001836020036101000a03801982511681845116808217855250505050505090500191505060405160208183030381529060405280519060200120876040516020018082805190602001908083835b6020831015156129475780518252602082019150602081019050602083039250612922565b6001836020036101000a038019825116818451168082178552505050505050905001915050604051602081830303815290604052805190602001201415612bc857600093505b600a54841015612ba157600860008581526020019081526020016000206006018054600181600116156101000203166002900480601f016020809104026020016040519081016040528092919081815260200182805460018160011615610100020316600290048015612a415780601f10612a1657610100808354040283529160200191612a41565b820191906000526020600020905b815481529060010190602001808311612a2457829003601f168201915b50505050509050856040516020018082805190602001908083835b602083101515612a815780518252602082019150602081019050602083039250612a5c565b6001836020036101000a03801982511681845116808217855250505050505090500191505060405160208183030381529060405280519060200120816040516020018082805190602001908083835b602083101515612af55780518252602082019150602081019050602083039250612ad0565b6001836020036101000a038019825116818451168082178552505050505050905001915050604051602081830303815290604052805190602001201415612b945760019150600860008581526020019081526020016000206007016000815480929190600101919050555060016006600080815260200190815260200160002060010160006101000a81548160ff021916908315150217905550612ba1565b838060010194505061298d565b600115158215151415612bbb576001945050505050612bcd565b6000945050505050612bcd565b505050505b92915050565b6001602052806000526040600020600091509050806000015490806001018054600181600116156101000203166002900480601f016020809104026020016040519081016040528092919081815260200182805460018160011615610100020316600290048015612c855780601f10612c5a57610100808354040283529160200191612c85565b820191906000526020600020905b815481529060010190602001808311612c6857829003601f168201915b505050505090806002018054600181600116156101000203166002900480601f016020809104026020016040519081016040528092919081815260200182805460018160011615610100020316600290048015612d235780601f10612cf857610100808354040283529160200191612d23565b820191906000526020600020905b815481529060010190602001808311612d0657829003601f168201915b505050505090806003018054600181600116156101000203166002900480601f016020809104026020016040519081016040528092919081815260200182805460018160011615610100020316600290048015612dc15780601f10612d9657610100808354040283529160200191612dc1565b820191906000526020600020905b815481529060010190602001808311612da457829003601f168201915b505050505090806004018054600181600116156101000203166002900480601f016020809104026020016040519081016040528092919081815260200182805460018160011615610100020316600290048015612e5f5780601f10612e3457610100808354040283529160200191612e5f565b820191906000526020600020905b815481529060010190602001808311612e4257829003601f168201915b505050505090806005018054600181600116156101000203166002900480601f016020809104026020016040519081016040528092919081815260200182805460018160011615610100020316600290048015612efd5780601f10612ed257610100808354040283529160200191612efd565b820191906000526020600020905b815481529060010190602001808311612ee057829003601f168201915b505050505090806006018054600181600116156101000203166002900480601f016020809104026020016040519081016040528092919081815260200182805460018160011615610100020316600290048015612f9b5780601f10612f7057610100808354040283529160200191612f9b565b820191906000526020600020905b815481529060010190602001808311612f7e57829003601f168201915b5050505050905087565b60006060806040805190810160405280600781526020017f6740672e636f6d0000000000000000000000000000000000000000000000000081525091506040805190810160405280600481526020017f676f7069000000000000000000000000000000000000000000000000000000008152509050846040516020018082805190602001908083835b602083101515613053578051825260208201915060208101905060208303925061302e565b6001836020036101000a03801982511681845116808217855250505050505090500191505060405160208183030381529060405280519060200120826040516020018082805190602001908083835b6020831015156130c757805182526020820191506020810190506020830392506130a2565b6001836020036101000a038019825116818451168082178552505050505050905001915050604051602081830303815290604052805190602001201480156131f45750836040516020018082805190602001908083835b602083101515613143578051825260208201915060208101905060208303925061311e565b6001836020036101000a03801982511681845116808217855250505050505090500191505060405160208183030381529060405280519060200120816040516020018082805190602001908083835b6020831015156131b75780518252602082019150602081019050602083039250613192565b6001836020036101000a03801982511681845116808217855250505050505090500191505060405160208183030381529060405280519060200120145b156132045760019250505061358f565b600080905060008090505b600b548111151561356d57600560008281526020019081526020016000206005018054600181600116156101000203166002900480601f0160208091040260200160405190810160405280929190818152602001828054600181600116156101000203166002900480156132c45780601f10613299576101008083540402835291602001916132c4565b820191906000526020600020905b8154815290600101906020018083116132a757829003601f168201915b50505050509350600560008281526020019081526020016000206006018054600181600116156101000203166002900480601f0160208091040260200160405190810160405280929190818152602001828054600181600116156101000203166002900480156133755780601f1061334a57610100808354040283529160200191613375565b820191906000526020600020905b81548152906001019060200180831161335857829003601f168201915b50505050509250866040516020018082805190602001908083835b6020831015156133b55780518252602082019150602081019050602083039250613390565b6001836020036101000a03801982511681845116808217855250505050505090500191505060405160208183030381529060405280519060200120846040516020018082805190602001908083835b6020831015156134295780518252602082019150602081019050602083039250613404565b6001836020036101000a038019825116818451168082178552505050505050905001915050604051602081830303815290604052805190602001201480156135565750856040516020018082805190602001908083835b6020831015156134a55780518252602082019150602081019050602083039250613480565b6001836020036101000a03801982511681845116808217855250505050505090500191505060405160208183030381529060405280519060200120836040516020018082805190602001908083835b60208310151561351957805182526020820191506020810190506020830392506134f4565b6001836020036101000a03801982511681845116808217855250505050505090500191505060405160208183030381529060405280519060200120145b1561356057600191505b808060010191505061320f565b5060011515811515141561358757600b935050505061358f565b600093505050505b92915050565b6000602052806000526040600020600091509050806000018054600181600116156101000203166002900480601f0160208091040260200160405190810160405280929190818152602001828054600181600116156101000203166002900480156136415780601f1061361657610100808354040283529160200191613641565b820191906000526020600020905b81548152906001019060200180831161362457829003601f168201915b505050505090806001018054600181600116156101000203166002900480601f0160208091040260200160405190810160405280929190818152602001828054600181600116156101000203166002900480156136df5780601f106136b4576101008083540402835291602001916136df565b820191906000526020600020905b8154815290600101906020018083116136c257829003601f168201915b5050505050905082565b6003602052806000526040600020600091509050806000015490806001018054600181600116156101000203166002900480601f01602080910402602001604051908101604052809291908181526020018280546001816001161561010002031660029004801561379b5780601f106137705761010080835404028352916020019161379b565b820191906000526020600020905b81548152906001019060200180831161377e57829003601f168201915b505050505090806002018054600181600116156101000203166002900480601f0160208091040260200160405190810160405280929190818152602001828054600181600116156101000203166002900480156138395780601f1061380e57610100808354040283529160200191613839565b820191906000526020600020905b81548152906001019060200180831161381c57829003601f168201915b505050505090806003018054600181600116156101000203166002900480601f0160208091040260200160405190810160405280929190818152602001828054600181600116156101000203166002900480156138d75780601f106138ac576101008083540402835291602001916138d7565b820191906000526020600020905b8154815290600101906020018083116138ba57829003601f168201915b505050505090806004018054600181600116156101000203166002900480601f0160208091040260200160405190810160405280929190818152602001828054600181600116156101000203166002900480156139755780601f1061394a57610100808354040283529160200191613975565b820191906000526020600020905b81548152906001019060200180831161395857829003601f168201915b505050505090806005018054600181600116156101000203166002900480601f016020809104026020016040519081016040528092919081815260200182805460018160011615610100020316600290048015613a135780601f106139e857610100808354040283529160200191613a13565b820191906000526020600020905b8154815290600101906020018083116139f657829003601f168201915b505050505090806006018054600181600116156101000203166002900480601f016020809104026020016040519081016040528092919081815260200182805460018160011615610100020316600290048015613ab15780601f10613a8657610100808354040283529160200191613ab1565b820191906000526020600020905b815481529060010190602001808311613a9457829003601f168201915b5050505050908060070154905088565b60e060405190810160405280600b5481526020018881526020018781526020018681526020018581526020018481526020018281525060056000600b548152602001908152602001600020600082015181600001556020820151816001019080519060200190613b32929190613deb565b506040820151816002019080519060200190613b4f929190613deb565b506060820151816003019080519060200190613b6c929190613deb565b506080820151816004019080519060200190613b89929190613deb565b5060a0820151816005019080519060200190613ba6929190613deb565b5060c0820151816006019080519060200190613bc3929190613deb565b50905050606060405190810160405280600b54815260200189151581526020018381525060066000600b5481526020019081526020016000206000820151816000015560208201518160010160006101000a81548160ff0219169083151502179055506040820151816002019080519060200190613c42929190613deb565b50905050600b600081548092919060010191905055505050505050505050565b61010060405190810160405280600a548152602001888152602001878152602001868152602001858152602001848152602001838152602001600081525060086000600a548152602001908152602001600020600082015181600001556020820151816001019080519060200190613cdb929190613deb565b506040820151816002019080519060200190613cf8929190613deb565b506060820151816003019080519060200190613d15929190613deb565b506080820151816004019080519060200190613d32929190613deb565b5060a0820151816005019080519060200190613d4f929190613deb565b5060c0820151816006019080519060200190613d6c929190613deb565b5060e082015181600701559050506040805190810160405280600a5481526020018281525060096000600a548152602001908152602001600020600082015181600001556020820151816001019080519060200190613dcc929190613deb565b50905050600a6000815480929190600101919050555050505050505050565b828054600181600116156101000203166002900490600052602060002090601f016020900481019282601f10613e2c57805160ff1916838001178555613e5a565b82800160010185558215613e5a579182015b82811115613e59578251825591602001919060010190613e3e565b5b509050613e679190613e6b565b5090565b613e8d91905b80821115613e89576000816000905550600101613e71565b5090565b9056fea165627a7a723058203e43bb15b0257edac82a3c80f3da32b09c650060a2e7c993935c8f2d7ded5a410029",
  "source": "pragma solidity >=0.4.9 < 0.6.0;\ncontract Candidate_data{\n\n //Modified\n    struct Admin{\n        string username;\n        string password;\n    }\n\n    mapping (uint => Admin) public admin;\n    struct Candidate {\n        uint Id;\n        string candidatename;\n        string branch;\n        string gender;\n        string year;\n        string email_id;\n        string reg_id;\n        uint vote_count;\n    }\n\n    struct users{\n        uint voters_ID;\n        string votername;\n        string Regno;\n        string Branch;\n        string Year;\n        string Emailid;\n        string password;\n    }\n\n    struct users_rem{\n        uint voters_ID;\n        bool has_voted;\n        string key;\n    }\n\n    struct Candidate_event{\n        uint Id;\n        string candidate_event;\n    }\n\n    //Modified\n    mapping (address => users) public users_list;\n    mapping (address => users_rem) public users_rem_list;\n    mapping (address => Candidate) public Candidate_list;\n    mapping (address=>Candidate_event) public Candidate_event_list;\n\n    mapping (uint => users) public Users;\n    mapping (uint =>users_rem) public Users_rem;\n\n    mapping(address => bool) public voters;\n\n    mapping (uint =>Candidate) public Candidates;\n\n    mapping (uint =>Candidate_event) public candidate_event;\n\n    uint public Candidate_count;\n    uint public voters_count;\n    event votedEvent (\n        uint indexed _candidateId\n    );\n\n    function addCandidate(string memory _cand, string memory _branch, string memory _gender,\n     string memory _email,  string memory _year, string memory _reg_id, string memory _event) public payable {\n        Candidates[Candidate_count] = Candidate(Candidate_count,_cand, _branch, _gender, _email, _year, _reg_id, 0);\n        candidate_event[Candidate_count] = Candidate_event(Candidate_count, _event);\n        Candidate_count ++;\n    }\n    function addVoter(bool _hasvoted,string memory _votername, string memory _regno, string memory _voterbranch,\n    string memory _voteryear,string memory _emailid, string memory _pubkey,string memory _pass) public payable{\n\t\tUsers[voters_count] = users(voters_count,_votername,_regno,_voterbranch,_voteryear,_emailid,_pass);\n        Users_rem[voters_count] = users_rem(voters_count, _hasvoted,_pubkey);\n\t\tvoters_count++;\n\t}\n\n    // function vote (uint _candidateId) public {\n    //     // require that they haven't voted before\n    //     require(!voters[msg.sender],\"check voting done?\");\n\n    //     // require a valid candidateUsers_rem\n    //     require(_candidateId > 0 && _candidateId <= Candidate_count, \"validate candidate_id\");\n\n    //     // record that voter has voted\n    //     voters[msg.sender] = true;\n\n    //     // update candidate vote Count\n    //     Candidates[_candidateId].vote_count++;\n\n    //     // trigger voted event\n    //     emit votedEvent(_candidateId);\n    // }\n    function addVote(string memory _key,string memory _regNo) public payable returns (uint) {\n        // return \"1\";\n        uint i;\n        string memory voter_key;\n        voter_key = Users_rem[0].key;\n        // uint resu\n        bool flag = false;\n        string memory candidate_regID;\n        if(keccak256(abi.encodePacked(_key)) == keccak256(abi.encodePacked(voter_key))){\n            for( i = 0; i < Candidate_count; i++){\n                candidate_regID = Candidates[i].reg_id;\n                if(keccak256(abi.encodePacked(candidate_regID)) == keccak256(abi.encodePacked(_regNo))){\n                    flag = true;\n                    Candidates[i].vote_count ++;\n                    Users_rem[0].has_voted = true;\n                    break;\n                }\n            }\n            if(flag == true){\n                return 1;\n            }else {\n                return 0;\n            }\n        }\n\n        // string memory voter_key;\n        // voter_key = Users_rem[0].key;\n        // // uint result;\n        // if(keccak256(abi.encodePacked(voter_key)) == keccak256(abi.encodePacked(_key))){\n        //     return 1;\n        // }else{\n        //     return 0;\n        // }\n        //    if(true){\n        //     string memory regNo;\n        //     uint candId;\n        //     bool flag = false;\n        //     for(uint j = 0; j < Candidate_count ; j++){\n        //         // name = Candidates[j].candidatename;\n        //         regNo = Candidates[j].reg_id;\n        //         // if(keccak256(abi.encodePacked(regNo)) == keccak256(abi.encodePacked(_regNo))){\n        //         if(true){\n        //             //console.log(\"Login successful\");\n        //             candId = Candidates[j].Id;\n        //             // Users_rem[0].has_voted = true;\n        //             flag = true;\n        //             break;\n        //         }\n        //     }\n        //     if(flag == true){\n        //         result = 1;\n        //         // vote(candId);\n        //         Candidates[candId].vote_count++;\n        //     }else{\n        //         result = 15;\n        //     }\n        // }\n        // else{\n        //     result = 12;\n        // }\n        // return result;\n    }\n    // function showCandidate() public payable returns(string memory name, string memory reg_no, string memory voting_event) {\n    //     for(uint i = 0; i <= voters_count; i++){\n    //         if((keccak256(abi.encodePacked(mailid)) == keccak256(abi.encodePacked(_username))\n    //         ) && (keccak256(abi.encodePacked(word)) == keccak256(abi.encodePacked(_keyword)))){\n    //             //console.log(\"Login successful\");\n    //             return 1;\n    //         }\n    //         else{\n    //             bool flag = false;\n    //             for(uint i = 0; i <= voters_count; i++){\n    //                 mailid = Users[i].Emailid;\n    //                 word = Users[i].password;\n    //                 if((keccak256(abi.encodePacked(mailid)) == keccak256(abi.encodePacked(_username))) && (keccak256(abi.encodePacked(word)) == keccak256(abi.encodePacked(_keyword)))){\n    //                     //console.log(\"Login successful\");\n    //                     flag = true;\n    //                 }\n    //             }\n    //             if(flag == true){\n    //                 return 11;\n    //             }\n    //             else{\n    //                 return 0;\n    //             }\n    //         }\n    //     }\n    // }\n\n\n    function adminLogin(string memory _username,string memory _keyword) public payable returns (uint) {\n        string memory mailid;\n        string memory word;\n        // for(uint i = 0; i <= voters_count; i++){\n            mailid = \"g@g.com\";\n            word = \"gopi\";\n            if((keccak256(abi.encodePacked(mailid)) == keccak256(abi.encodePacked(_username))\n            ) && (keccak256(abi.encodePacked(word)) == keccak256(abi.encodePacked(_keyword)))){\n                //console.log(\"Login successful\");\n                return 1;\n            }\n            else{\n                bool flag = false;\n                for(uint j = 0; j <= voters_count; j++){\n                    mailid = Users[j].Emailid;\n                    word = Users[j].password;\n                    if((keccak256(abi.encodePacked(mailid)) == keccak256(abi.encodePacked(_username))) && (keccak256(abi.encodePacked(word)) == keccak256(abi.encodePacked(_keyword)))){\n                        //console.log(\"Login successful\");\n                        flag = true;\n                    }\n                }\n                if(flag == true){\n                    return 11;\n                }\n                else{\n                    return 0;\n                }\n            }\n        // }\n    }\n\n\n\n}",
  "sourcePath": "/home/nolayercode/Documents/BlockChain/contracts/Candidate_data.sol",
  "compiler": {
    "name": "solc",
    "version": "0.5.0+commit.1d4f565a.Emscripten.clang"
  },
  "schemaVersion": "3.0.9",
  "updatedAt": "2019-05-24T14:15:26.610Z",
  "devdoc": {
    "methods": {}
  },
  "userdoc": {
    "methods": {}
  }
}