{
  "contractName": "Voters_data",
  "abi": [
    {
      "constant": true,
      "inputs": [
        {
          "name": "",
          "type": "uint256"
        }
      ],
      "name": "Voters",
      "outputs": [
        {
          "name": "id",
          "type": "uint256"
        },
        {
          "name": "votersname",
          "type": "string"
        },
        {
          "name": "election_id",
          "type": "uint256"
        },
        {
          "name": "age",
          "type": "uint256"
        },
        {
          "name": "gender",
          "type": "string"
        },
        {
          "name": "password",
          "type": "string"
        },
        {
          "name": "voters_address",
          "type": "string"
        },
        {
          "name": "adhar_number",
          "type": "string"
        }
      ],
      "payable": false,
      "stateMutability": "view",
      "type": "function"
    },
    {
      "constant": true,
      "inputs": [],
      "name": "voter_count",
      "outputs": [
        {
          "name": "",
          "type": "uint256"
        }
      ],
      "payable": false,
      "stateMutability": "view",
      "type": "function"
    },
    {
      "inputs": [],
      "payable": false,
      "stateMutability": "nonpayable",
      "type": "constructor"
    },
    {
      "constant": false,
      "inputs": [
        {
          "name": "_name",
          "type": "string"
        },
        {
          "name": "_age",
          "type": "uint256"
        },
        {
          "name": "_gender",
          "type": "string"
        },
        {
          "name": "_address",
          "type": "string"
        },
        {
          "name": "_password",
          "type": "string"
        },
        {
          "name": "_electionid",
          "type": "uint256"
        },
        {
          "name": "_adhar",
          "type": "string"
        }
      ],
      "name": "addVoter",
      "outputs": [],
      "payable": false,
      "stateMutability": "nonpayable",
      "type": "function"
    }
  ],
  "bytecode": "0x60806040523480156200001157600080fd5b506200013d6040805190810160405280600681526020017f7669736877610000000000000000000000000000000000000000000000000000815250602d6040805190810160405280600181526020017f4d000000000000000000000000000000000000000000000000000000000000008152506040805190810160405280600781526020017f61646472657373000000000000000000000000000000000000000000000000008152506040805190810160405280600881526020017f70617373776f726400000000000000000000000000000000000000000000000081525060656040805190810160405280600a81526020017f71776572747975696f700000000000000000000000000000000000000000000081525062000143640100000000026401000000009004565b6200031a565b600160008154809291906001019190505550610100604051908101604052806001548152602001888152602001838152602001878152602001868152602001848152602001858152602001828152506000806001548152602001908152602001600020600082015181600001556020820151816001019080519060200190620001ce9291906200026b565b5060408201518160020155606082015181600301556080820151816004019080519060200190620002019291906200026b565b5060a0820151816005019080519060200190620002209291906200026b565b5060c08201518160060190805190602001906200023f9291906200026b565b5060e08201518160070190805190602001906200025e9291906200026b565b5090505050505050505050565b828054600181600116156101000203166002900490600052602060002090601f016020900481019282601f10620002ae57805160ff1916838001178555620002df565b82800160010185558215620002df579182015b82811115620002de578251825591602001919060010190620002c1565b5b509050620002ee9190620002f2565b5090565b6200031791905b8082111562000313576000816000905550600101620002f9565b5090565b90565b610b6d806200032a6000396000f3fe608060405260043610610057576000357c0100000000000000000000000000000000000000000000000000000000900463ffffffff1680634bcebc291461005c5780639c35d98b14610394578063beb604e01461060d575b600080fd5b34801561006857600080fd5b50610392600480360360e081101561007f57600080fd5b810190808035906020019064010000000081111561009c57600080fd5b8201836020820111156100ae57600080fd5b803590602001918460018302840111640100000000831117156100d057600080fd5b91908080601f016020809104026020016040519081016040528093929190818152602001838380828437600081840152601f19601f820116905080830192505050505050509192919290803590602001909291908035906020019064010000000081111561013d57600080fd5b82018360208201111561014f57600080fd5b8035906020019184600183028401116401000000008311171561017157600080fd5b91908080601f016020809104026020016040519081016040528093929190818152602001838380828437600081840152601f19601f820116905080830192505050505050509192919290803590602001906401000000008111156101d457600080fd5b8201836020820111156101e657600080fd5b8035906020019184600183028401116401000000008311171561020857600080fd5b91908080601f016020809104026020016040519081016040528093929190818152602001838380828437600081840152601f19601f8201169050808301925050505050505091929192908035906020019064010000000081111561026b57600080fd5b82018360208201111561027d57600080fd5b8035906020019184600183028401116401000000008311171561029f57600080fd5b91908080601f016020809104026020016040519081016040528093929190818152602001838380828437600081840152601f19601f820116905080830192505050505050509192919290803590602001909291908035906020019064010000000081111561030c57600080fd5b82018360208201111561031e57600080fd5b8035906020019184600183028401116401000000008311171561034057600080fd5b91908080601f016020809104026020016040519081016040528093929190818152602001838380828437600081840152601f19601f820116905080830192505050505050509192919290505050610638565b005b3480156103a057600080fd5b506103cd600480360360208110156103b757600080fd5b8101908080359060200190929190505050610756565b60405180898152602001806020018881526020018781526020018060200180602001806020018060200186810386528d818151815260200191508051906020019080838360005b8381101561042f578082015181840152602081019050610414565b50505050905090810190601f16801561045c5780820380516001836020036101000a031916815260200191505b5086810385528a818151815260200191508051906020019080838360005b8381101561049557808201518184015260208101905061047a565b50505050905090810190601f1680156104c25780820380516001836020036101000a031916815260200191505b50868103845289818151815260200191508051906020019080838360005b838110156104fb5780820151818401526020810190506104e0565b50505050905090810190601f1680156105285780820380516001836020036101000a031916815260200191505b50868103835288818151815260200191508051906020019080838360005b83811015610561578082015181840152602081019050610546565b50505050905090810190601f16801561058e5780820380516001836020036101000a031916815260200191505b50868103825287818151815260200191508051906020019080838360005b838110156105c75780820151818401526020810190506105ac565b50505050905090810190601f1680156105f45780820380516001836020036101000a031916815260200191505b509d505050505050505050505050505060405180910390f35b34801561061957600080fd5b50610622610a96565b6040518082815260200191505060405180910390f35b6001600081548092919060010191905055506101006040519081016040528060015481526020018881526020018381526020018781526020018681526020018481526020018581526020018281525060008060015481526020019081526020016000206000820151816000015560208201518160010190805190602001906106c1929190610a9c565b50604082015181600201556060820151816003015560808201518160040190805190602001906106f2929190610a9c565b5060a082015181600501908051906020019061070f929190610a9c565b5060c082015181600601908051906020019061072c929190610a9c565b5060e0820151816007019080519060200190610749929190610a9c565b5090505050505050505050565b6000602052806000526040600020600091509050806000015490806001018054600181600116156101000203166002900480601f0160208091040260200160405190810160405280929190818152602001828054600181600116156101000203166002900480156108085780601f106107dd57610100808354040283529160200191610808565b820191906000526020600020905b8154815290600101906020018083116107eb57829003601f168201915b505050505090806002015490806003015490806004018054600181600116156101000203166002900480601f0160208091040260200160405190810160405280929190818152602001828054600181600116156101000203166002900480156108b25780601f10610887576101008083540402835291602001916108b2565b820191906000526020600020905b81548152906001019060200180831161089557829003601f168201915b505050505090806005018054600181600116156101000203166002900480601f0160208091040260200160405190810160405280929190818152602001828054600181600116156101000203166002900480156109505780601f1061092557610100808354040283529160200191610950565b820191906000526020600020905b81548152906001019060200180831161093357829003601f168201915b505050505090806006018054600181600116156101000203166002900480601f0160208091040260200160405190810160405280929190818152602001828054600181600116156101000203166002900480156109ee5780601f106109c3576101008083540402835291602001916109ee565b820191906000526020600020905b8154815290600101906020018083116109d157829003601f168201915b505050505090806007018054600181600116156101000203166002900480601f016020809104026020016040519081016040528092919081815260200182805460018160011615610100020316600290048015610a8c5780601f10610a6157610100808354040283529160200191610a8c565b820191906000526020600020905b815481529060010190602001808311610a6f57829003601f168201915b5050505050905088565b60015481565b828054600181600116156101000203166002900490600052602060002090601f016020900481019282601f10610add57805160ff1916838001178555610b0b565b82800160010185558215610b0b579182015b82811115610b0a578251825591602001919060010190610aef565b5b509050610b189190610b1c565b5090565b610b3e91905b80821115610b3a576000816000905550600101610b22565b5090565b9056fea165627a7a723058208d86d1900f347651a4d6fb1a631462539137294555fa032f7f8f96c85d89a4c00029",
  "source": "pragma solidity >=0.4.9 <0.6.0;\n\ncontract Voters_data {\n    struct Voter {\n        uint id;\n        string votersname;\n        uint election_id;\n        uint age;\n        string gender;\n        string password;\n        string voters_address;\n        string adhar_number;\n    }\n\n    mapping (uint =>Voter) public Voters;\n\n    uint public voter_count;\n\n    function addVoter(string memory _name,uint _age,string memory _gender,\n    string memory _address,string memory _password,uint _electionid,string memory _adhar) public{\n        voter_count++;\n        Voters[voter_count] = Voter(voter_count,_name, _electionid, _age, _gender, _password, _address, _adhar);\n    }\n\n    constructor () public {\n        addVoter(\"vishwa\",45, \"M\", \"address\", \"password\", 101, \"qwertyuiop\");\n    }\n}",
  "sourcePath": "/home/nolayercode/Documents/BlockChain/contracts/Voters_data.sol",
  "compiler": {
    "name": "solc",
    "version": "0.5.0+commit.1d4f565a.Emscripten.clang"
  },
  "schemaVersion": "3.0.9",
  "updatedAt": "2019-05-18T11:52:26.677Z",
  "devdoc": {
    "methods": {}
  },
  "userdoc": {
    "methods": {}
  }
}