{
  "contractName": "Voters_data",
  "abi": [
    {
      "constant": true,
      "inputs": [],
      "name": "candidatesCount",
      "outputs": [
        {
          "name": "",
          "type": "uint256"
        }
      ],
      "payable": false,
      "stateMutability": "view",
      "type": "function"
    },
    {
      "constant": true,
      "inputs": [
        {
          "name": "",
          "type": "uint256"
        }
      ],
      "name": "candidates",
      "outputs": [
        {
          "name": "Id",
          "type": "uint256"
        },
        {
          "name": "candidatename",
          "type": "string"
        },
        {
          "name": "branch",
          "type": "string"
        },
        {
          "name": "gender",
          "type": "string"
        },
        {
          "name": "year",
          "type": "string"
        },
        {
          "name": "email_id",
          "type": "string"
        },
        {
          "name": "reg_id",
          "type": "string"
        },
        {
          "name": "vote_count",
          "type": "uint256"
        }
      ],
      "payable": false,
      "stateMutability": "view",
      "type": "function"
    },
    {
      "constant": true,
      "inputs": [],
      "name": "voters_count",
      "outputs": [
        {
          "name": "",
          "type": "uint256"
        }
      ],
      "payable": false,
      "stateMutability": "view",
      "type": "function"
    },
    {
      "constant": true,
      "inputs": [
        {
          "name": "",
          "type": "uint256"
        }
      ],
      "name": "candidatesevent",
      "outputs": [
        {
          "name": "Id",
          "type": "uint256"
        },
        {
          "name": "candidate_event",
          "type": "string"
        }
      ],
      "payable": false,
      "stateMutability": "view",
      "type": "function"
    },
    {
      "constant": true,
      "inputs": [
        {
          "name": "",
          "type": "address"
        }
      ],
      "name": "voters",
      "outputs": [
        {
          "name": "",
          "type": "bool"
        }
      ],
      "payable": false,
      "stateMutability": "view",
      "type": "function"
    },
    {
      "anonymous": false,
      "inputs": [
        {
          "indexed": true,
          "name": "_candidateId",
          "type": "uint256"
        }
      ],
      "name": "votedEvent",
      "type": "event"
    },
    {
      "constant": false,
      "inputs": [
        {
          "name": "_votername",
          "type": "string"
        },
        {
          "name": "_regno",
          "type": "string"
        },
        {
          "name": "_voterbranch",
          "type": "string"
        },
        {
          "name": "_voteryear",
          "type": "string"
        },
        {
          "name": "_emailid",
          "type": "string"
        },
        {
          "name": "_hasvoted",
          "type": "bool"
        },
        {
          "name": "_pubkey",
          "type": "string"
        },
        {
          "name": "_prikey",
          "type": "string"
        }
      ],
      "name": "addVoter",
      "outputs": [],
      "payable": true,
      "stateMutability": "payable",
      "type": "function"
    },
    {
      "constant": false,
      "inputs": [
        {
          "name": "_candidateName",
          "type": "string"
        },
        {
          "name": "_candidateBranch",
          "type": "string"
        },
        {
          "name": "_Gender",
          "type": "string"
        },
        {
          "name": "_candidateEmail",
          "type": "string"
        },
        {
          "name": "_candidateYear",
          "type": "string"
        },
        {
          "name": "_candidateReg_no",
          "type": "string"
        }
      ],
      "name": "addCandidate",
      "outputs": [],
      "payable": false,
      "stateMutability": "nonpayable",
      "type": "function"
    },
    {
      "constant": false,
      "inputs": [
        {
          "name": "_candidateId",
          "type": "uint256"
        }
      ],
      "name": "vote",
      "outputs": [],
      "payable": false,
      "stateMutability": "nonpayable",
      "type": "function"
    }
  ],
  "bytecode": "0x6080604052600060025534801561001557600080fd5b506116ba806100256000396000f3fe60806040526004361061008e576000357c0100000000000000000000000000000000000000000000000000000000900463ffffffff1680630121b93f146100935780632d35a8a2146100ce5780633477ee2e146100f957806340dec728146103d75780637d2b99d214610402578063a166dedf14610854578063a3ec138d1461090f578063bbdac32314610978575b600080fd5b34801561009f57600080fd5b506100cc600480360360208110156100b657600080fd5b8101908080359060200190929190505050610d33565b005b3480156100da57600080fd5b506100e3610e57565b6040518082815260200191505060405180910390f35b34801561010557600080fd5b506101326004803603602081101561011c57600080fd5b8101908080359060200190929190505050610e5d565b6040518089815260200180602001806020018060200180602001806020018060200188815260200187810387528e818151815260200191508051906020019080838360005b83811015610192578082015181840152602081019050610177565b50505050905090810190601f1680156101bf5780820380516001836020036101000a031916815260200191505b5087810386528d818151815260200191508051906020019080838360005b838110156101f85780820151818401526020810190506101dd565b50505050905090810190601f1680156102255780820380516001836020036101000a031916815260200191505b5087810385528c818151815260200191508051906020019080838360005b8381101561025e578082015181840152602081019050610243565b50505050905090810190601f16801561028b5780820380516001836020036101000a031916815260200191505b5087810384528b818151815260200191508051906020019080838360005b838110156102c45780820151818401526020810190506102a9565b50505050905090810190601f1680156102f15780820380516001836020036101000a031916815260200191505b5087810383528a818151815260200191508051906020019080838360005b8381101561032a57808201518184015260208101905061030f565b50505050905090810190601f1680156103575780820380516001836020036101000a031916815260200191505b50878103825289818151815260200191508051906020019080838360005b83811015610390578082015181840152602081019050610375565b50505050905090810190601f1680156103bd5780820380516001836020036101000a031916815260200191505b509e50505050505050505050505050505060405180910390f35b3480156103e357600080fd5b506103ec611235565b6040518082815260200191505060405180910390f35b610852600480360361010081101561041957600080fd5b810190808035906020019064010000000081111561043657600080fd5b82018360208201111561044857600080fd5b8035906020019184600183028401116401000000008311171561046a57600080fd5b91908080601f016020809104026020016040519081016040528093929190818152602001838380828437600081840152601f19601f820116905080830192505050505050509192919290803590602001906401000000008111156104cd57600080fd5b8201836020820111156104df57600080fd5b8035906020019184600183028401116401000000008311171561050157600080fd5b91908080601f016020809104026020016040519081016040528093929190818152602001838380828437600081840152601f19601f8201169050808301925050505050505091929192908035906020019064010000000081111561056457600080fd5b82018360208201111561057657600080fd5b8035906020019184600183028401116401000000008311171561059857600080fd5b91908080601f016020809104026020016040519081016040528093929190818152602001838380828437600081840152601f19601f820116905080830192505050505050509192919290803590602001906401000000008111156105fb57600080fd5b82018360208201111561060d57600080fd5b8035906020019184600183028401116401000000008311171561062f57600080fd5b91908080601f016020809104026020016040519081016040528093929190818152602001838380828437600081840152601f19601f8201169050808301925050505050505091929192908035906020019064010000000081111561069257600080fd5b8201836020820111156106a457600080fd5b803590602001918460018302840111640100000000831117156106c657600080fd5b91908080601f016020809104026020016040519081016040528093929190818152602001838380828437600081840152601f19601f8201169050808301925050505050505091929192908035151590602001909291908035906020019064010000000081111561073557600080fd5b82018360208201111561074757600080fd5b8035906020019184600183028401116401000000008311171561076957600080fd5b91908080601f016020809104026020016040519081016040528093929190818152602001838380828437600081840152601f19601f820116905080830192505050505050509192919290803590602001906401000000008111156107cc57600080fd5b8201836020820111156107de57600080fd5b8035906020019184600183028401116401000000008311171561080057600080fd5b91908080601f016020809104026020016040519081016040528093929190818152602001838380828437600081840152601f19601f82011690508083019250505050505050919291929050505061123b565b005b34801561086057600080fd5b5061088d6004803603602081101561087757600080fd5b81019080803590602001909291905050506113db565b6040518083815260200180602001828103825283818151815260200191508051906020019080838360005b838110156108d35780820151818401526020810190506108b8565b50505050905090810190601f1680156109005780820380516001836020036101000a031916815260200191505b50935050505060405180910390f35b34801561091b57600080fd5b5061095e6004803603602081101561093257600080fd5b81019080803573ffffffffffffffffffffffffffffffffffffffff169060200190929190505050611497565b604051808215151515815260200191505060405180910390f35b34801561098457600080fd5b50610d31600480360360c081101561099b57600080fd5b81019080803590602001906401000000008111156109b857600080fd5b8201836020820111156109ca57600080fd5b803590602001918460018302840111640100000000831117156109ec57600080fd5b91908080601f016020809104026020016040519081016040528093929190818152602001838380828437600081840152601f19601f82011690508083019250505050505050919291929080359060200190640100000000811115610a4f57600080fd5b820183602082011115610a6157600080fd5b80359060200191846001830284011164010000000083111715610a8357600080fd5b91908080601f016020809104026020016040519081016040528093929190818152602001838380828437600081840152601f19601f82011690508083019250505050505050919291929080359060200190640100000000811115610ae657600080fd5b820183602082011115610af857600080fd5b80359060200191846001830284011164010000000083111715610b1a57600080fd5b91908080601f016020809104026020016040519081016040528093929190818152602001838380828437600081840152601f19601f82011690508083019250505050505050919291929080359060200190640100000000811115610b7d57600080fd5b820183602082011115610b8f57600080fd5b80359060200191846001830284011164010000000083111715610bb157600080fd5b91908080601f016020809104026020016040519081016040528093929190818152602001838380828437600081840152601f19601f82011690508083019250505050505050919291929080359060200190640100000000811115610c1457600080fd5b820183602082011115610c2657600080fd5b80359060200191846001830284011164010000000083111715610c4857600080fd5b91908080601f016020809104026020016040519081016040528093929190818152602001838380828437600081840152601f19601f82011690508083019250505050505050919291929080359060200190640100000000811115610cab57600080fd5b820183602082011115610cbd57600080fd5b80359060200191846001830284011164010000000083111715610cdf57600080fd5b91908080601f016020809104026020016040519081016040528093929190818152602001838380828437600081840152601f19601f8201169050808301925050505050505091929192905050506114b7565b005b600360003373ffffffffffffffffffffffffffffffffffffffff1673ffffffffffffffffffffffffffffffffffffffff16815260200190815260200160002060009054906101000a900460ff16151515610d8c57600080fd5b600081118015610d9e57506006548111155b1515610da957600080fd5b6001600360003373ffffffffffffffffffffffffffffffffffffffff1673ffffffffffffffffffffffffffffffffffffffff16815260200190815260200160002060006101000a81548160ff0219169083151502179055506004600082815260200190815260200160002060070160008154809291906001019190505550807ffff3c900d938d21d0990d786e819f29b8d05c1ef587b462b939609625b684b1660405160405180910390a250565b60065481565b6004602052806000526040600020600091509050806000015490806001018054600181600116156101000203166002900480601f016020809104026020016040519081016040528092919081815260200182805460018160011615610100020316600290048015610f0f5780601f10610ee457610100808354040283529160200191610f0f565b820191906000526020600020905b815481529060010190602001808311610ef257829003601f168201915b505050505090806002018054600181600116156101000203166002900480601f016020809104026020016040519081016040528092919081815260200182805460018160011615610100020316600290048015610fad5780601f10610f8257610100808354040283529160200191610fad565b820191906000526020600020905b815481529060010190602001808311610f9057829003601f168201915b505050505090806003018054600181600116156101000203166002900480601f01602080910402602001604051908101604052809291908181526020018280546001816001161561010002031660029004801561104b5780601f106110205761010080835404028352916020019161104b565b820191906000526020600020905b81548152906001019060200180831161102e57829003601f168201915b505050505090806004018054600181600116156101000203166002900480601f0160208091040260200160405190810160405280929190818152602001828054600181600116156101000203166002900480156110e95780601f106110be576101008083540402835291602001916110e9565b820191906000526020600020905b8154815290600101906020018083116110cc57829003601f168201915b505050505090806005018054600181600116156101000203166002900480601f0160208091040260200160405190810160405280929190818152602001828054600181600116156101000203166002900480156111875780601f1061115c57610100808354040283529160200191611187565b820191906000526020600020905b81548152906001019060200180831161116a57829003601f168201915b505050505090806006018054600181600116156101000203166002900480601f0160208091040260200160405190810160405280929190818152602001828054600181600116156101000203166002900480156112255780601f106111fa57610100808354040283529160200191611225565b820191906000526020600020905b81548152906001019060200180831161120857829003601f168201915b5050505050908060070154905088565b60025481565b60026000815480929190600101919050555060c06040519081016040528060025481526020018981526020018881526020018781526020018681526020018581525060008060025481526020019081526020016000206000820151816000015560208201518160010190805190602001906112b79291906115e9565b5060408201518160020190805190602001906112d49291906115e9565b5060608201518160030190805190602001906112f19291906115e9565b50608082015181600401908051906020019061130e9291906115e9565b5060a082015181600501908051906020019061132b9291906115e9565b5090505060806040519081016040528060025481526020018415158152602001838152602001828152506001600060025481526020019081526020016000206000820151816000015560208201518160010160006101000a81548160ff02191690831515021790555060408201518160020190805190602001906113b09291906115e9565b5060608201518160030190805190602001906113cd9291906115e9565b509050505050505050505050565b6005602052806000526040600020600091509050806000015490806001018054600181600116156101000203166002900480601f01602080910402602001604051908101604052809291908181526020018280546001816001161561010002031660029004801561148d5780601f106114625761010080835404028352916020019161148d565b820191906000526020600020905b81548152906001019060200180831161147057829003601f168201915b5050505050905082565b60036020528060005260406000206000915054906101000a900460ff1681565b60066000815480929190600101919050555061010060405190810160405280600654815260200187815260200186815260200185815260200183815260200184815260200182815260200160008152506004600060065481526020019081526020016000206000820151816000015560208201518160010190805190602001906115429291906115e9565b50604082015181600201908051906020019061155f9291906115e9565b50606082015181600301908051906020019061157c9291906115e9565b5060808201518160040190805190602001906115999291906115e9565b5060a08201518160050190805190602001906115b69291906115e9565b5060c08201518160060190805190602001906115d39291906115e9565b5060e08201518160070155905050505050505050565b828054600181600116156101000203166002900490600052602060002090601f016020900481019282601f1061162a57805160ff1916838001178555611658565b82800160010185558215611658579182015b8281111561165757825182559160200191906001019061163c565b5b5090506116659190611669565b5090565b61168b91905b8082111561168757600081600090555060010161166f565b5090565b9056fea165627a7a723058204bf18cb193c0e0286b900b66a562bff813f222b16eba893b1aac1feee78190eb0029",
  "source": "// pragma solidity >=0.4.9 <0.6.0;\n\n// contract Voters_data {\n//     struct Voter {\n//         uint id;\n//         string votersname;\n//         uint election_id;\n//         uint age;\n//         string gender;\n//         string password;\n//         string voters_address;\n//         string adhar_number;\n//     }\n\n//     mapping (uint =>Voter) public Voters;\n\n//     uint public voter_count;\n\n//     function addVoter(string memory _name,uint _age,string memory _gender,\n//     string memory _address,string memory _password,uint _electionid,string memory _adhar) public{\n//         voter_count++;\n//         Voters[voter_count] = Voter(voter_count,_name, _electionid, _age, _gender, _password, _address, _adhar);\n//     }\n\n//     constructor () public {\n//         addVoter(\"vishwa\",45, \"M\", \"address\", \"password\", 101, \"qwertyuiop\");\n//     }\n// }\n\npragma solidity ^0.5.0<=0.6.99;\ncontract Voters_data {\n    // Model a Candidate\n    struct Candidate {\n        uint Id;\n        string candidatename;\n        string branch;\n        string gender;\n        string year;\n        string email_id;\n        string reg_id;\n        uint vote_count;\n    }\n    struct Candidate_event{\n        uint Id;\n        string candidate_event;\n    }\n    struct users{\n        uint voter_ID;\n        string votername;\n        string Regno;\n        string Branch;\n        string Year;\n        string Emailid;\n    }\n    struct users_rem{\n        uint voter_ID;\n        bool has_voted;\n        string publickey;\n        string privatekey;\n    }\n\n    mapping (uint => users) Users;\n    mapping (uint =>users_rem) Users_rem;\n\n     uint public voters_count =0;\n\n    \n      \n\n    function addVoter(string memory _votername, string memory _regno, string memory _voterbranch,\n    string memory _voteryear,string memory _emailid, bool _hasvoted,string memory _pubkey,string memory _prikey) payable public {\n          voters_count ++;\n          Users[voters_count] = users(voters_count,_votername,_regno,_voterbranch,_voteryear,_emailid);\n          Users_rem[voters_count] = users_rem(voters_count, _hasvoted,_pubkey,_prikey);\n     }\n//     function addValues() public {\n           \n//     }\n\n\n    // Store accounts that have voted\n    mapping(address => bool) public voters;\n    // Store Candidates\n    // Fetch Candidate\n    mapping(uint => Candidate) public candidates;\n    mapping (uint =>Candidate_event) public candidatesevent;\n    // Store Candidates Count\n    uint public candidatesCount;\n\n    // voted event\n    event votedEvent (\n      uint indexed _candidateId\n    );\n\n   /* constructor () public {\n        addCandidate(\"Candidate 1\");\n        addCandidate(\"Candidate 2\");\n    }*/\n\n    function addCandidate (string memory _candidateName, string memory _candidateBranch, string memory _Gender, \n    string memory _candidateEmail, string memory _candidateYear, string memory _candidateReg_no) public {\n        candidatesCount ++;\n        candidates[candidatesCount] = Candidate(candidatesCount,_candidateName, _candidateBranch, \n\t   _Gender,  _candidateYear,_candidateEmail, _candidateReg_no, 0);\n        //candidatesevent[candidatesCount]= Candidate_event(candidatesCount,);\n        }\n\n    function vote (uint _candidateId) public {\n        // require that they haven't voted before\n        require(!voters[msg.sender]);\n\n        // require a valid candidate\n        require(_candidateId > 0 && _candidateId <= candidatesCount);\n\n        // record that voter has voted\n        voters[msg.sender] = true;\n\n        // update candidate vote Count\n        candidates[_candidateId].vote_count ++;\n\n        // trigger voted event\n        emit votedEvent(_candidateId);\n    }\n\n   \n}",
  "sourcePath": "/home/nolayercode/Documents/BlockChain/contracts/Voters_data.sol",
  "compiler": {
    "name": "solc",
    "version": "0.5.0+commit.1d4f565a.Emscripten.clang"
  },
  "schemaVersion": "3.0.9",
  "updatedAt": "2019-05-23T17:24:56.147Z",
  "devdoc": {
    "methods": {}
  },
  "userdoc": {
    "methods": {}
  }
}